:100000000C941A010C944B010C944B010C944B0171
:100010000C944B010C944B010C944B010C944B0130
:100020000C944B010C944B010C944B010C944B0120
:100030000C944B010C944B010C944B010C944B0110
:100040000C944B010C94E3030C944B010C944B0166
:100050000C944B010C944B010C944B010C940F032A
:100060000C944B010C944B010C944B010C944B01E0
:100070000C944B010C944B010C944B010C944B01D0
:100080000C94B5030C944B010C944B010C944B0154
:100090000C944B010C944B010C944B010C944B01B0
:1000A0000C944B010C944B010C9487030C944B0162
:1000B0000C944B010C944B010C944B010C94590380
:1000C0000C944B010C944B010C944B010C944B0180
:1000D0000C944B010C944B010C944B010C944B0170
:1000E0000C944B010C9429050C9429020C943302B6
:1000F0000C9441020C9418020C9445020C943D029D
:100100000C942F020C9425020C941F020C944B02A9
:100110000C94FE010C944F020C9414020C94F901FF
:100120000C9410020C9437020C941C020000210065
:10013000240027002A002D003000330001010000B8
:10014000040107010A0100002200250028002B00FD
:100150002E003100340002010000050108010B01EE
:1001600005050505070508080808020202020A0A33
:100170000808040404040101010101010101030351
:10018000030303030303040707070C0C0C0C0C0CFC
:100190000C0C0202020206060606060606060B0BF9
:1001A0000B0B0B0B0B0B010210202008081020403A
:1001B000102040800201020108040201010204082B
:1001C00010204080804020100804020180040201B9
:1001D0008040201008040201080402010102040802
:1001E00010204080010204081020408000000A0B0B
:1001F00002090C0D0E0807030401000000000000B6
:1002000000000000000000000000000000000000EE
:1002100000000000000000001211100000000000AB
:1002200000000000000000000000000000000000CE
:100230000000290511241FBECFEFD1E2DEBFCDBFE4
:1002400000E00CBF12E0A0E0B2E0EAE7FBE000E073
:100250000BBF02C007900D92A030B107D9F722E082
:10026000A0E0B2E001C01D92A13AB207E1F711E0AF
:10027000CAE1D1E000E006C021970109802FFE010C
:100280000E94B305C931D10780E00807A9F70E9491
:1002900011040C94BB050C940000CF92DF92EF92F6
:1002A000FF92DC01A03282E0B807D4F5A53BB1058E
:1002B00014F0A4EBB0E040919F0228E830E0241B4A
:1002C000310947FD3395220F331F220F331F690178
:1002D000330FEE08FF084091A00228E532E0241B0E
:1002E000310947FD3395220F331F220F331F032E91
:1002F000000C440B550B2C193D094E095F09B7FF43
:1003000002C0B0E0A0E00E946E0524EB30E040E0C7
:1003100050E00E944405C20ED31EE41EF51ED60115
:10032000E0919E02E03380F520919F0288E890E002
:10033000821B910927FD9395880F991F880F991F9C
:10034000A817B90784F02091A00288E592E0821BEB
:10035000910927FD9395880F991F880F991FA8175A
:10036000B9070CF4CD010297880F991F4FB7F89485
:100370002E2F30E0F901EE0FFF1FE20FF31FE25FB7
:10038000FD4F928381834FBFFF90EF90DF90CF901E
:100390000895282F30E0F901E451FE4F9491F901BE
:1003A000EA55FE4F4491205A3E4FF90124912223F1
:1003B00009F435C0992311F191509231F8F4E92FE5
:1003C000F0E08827E951FE4F8F4F0C94B3051802D7
:1003D0001C02F90110021402FE011F02250229026B
:1003E0002F02330237023D024102FE0145024B0259
:1003F0004F02809180008F7780938000E22FF0E0A1
:10040000EE0FFF1FEA5BFE4FA591B4918FB7F894F2
:10041000EC91611148C040954E234C938FBF0895D5
:10042000809180008F7DE8CF80918000877FE4CF2E
:1004300084B58F7784BDE2CF84B58F7DFBCF80916B
:10044000B0008F778093B000D9CF8091B0008F7DBE
:10045000F9CF809190008F7780939000CFCF8091DB
:1004600090008F7DF9CF80919000877FF5CF8091AC
:10047000A0008F778093A000C1CF8091A0008F7DD6
:10048000F9CF8091A000877FF5CF809120018F77F1
:1004900080932001B3CF809120018F7DF9CF80918F
:1004A0002001877FF5CF4E2BB8CFAF92BF92CF926E
:1004B000DF92EF92FF920F931F93CF93DF936B0125
:1004C0007A01EC01CF5FDD4F28813CE0389F80014D
:1004D000399F100D1124A0900002B12C27FF1FC0DE
:1004E000FB011182108288818F5F88838881980147
:1004F000280F311D87FD3A95F6012A153B051CF49E
:1005000088818C30C4F180819181049680349C492B
:1005100008F473C0F60180819181049670C08881CF
:100520009801280F311D87FD3A952A153B05DCF609
:100530008881A801480F511D87FD5A95FA01EE0FD9
:10054000FF1FE40FF51FE25FFD4F808186FFCBCFD9
:100550008881F801E80FF11D87FDFA95CF01EE0FB4
:10056000FF1FE80FF91FE25FFD4F808160E08F738E
:100570000E94C901B8CF808191812881A801420FD2
:10058000511D27FD5A959A01FA01EE0FFF1FE20F48
:10059000F31FE25FFD4F21813281820F931FF7012C
:1005A0009183808388819801280F311D87FD3A95BA
:1005B000F901EE0FFF1FE20FF31FE25FFD4F808195
:1005C00086FF22C08881080F111D87FD1A95F8014A
:1005D000EE0FFF1FE00FF11FE25FFD4F808161E032
:1005E0008F73DF91CF911F910F91FF90EF90DF906C
:1005F000CF90BF90AF900C94C90180E49CE9F701C3
:10060000918380838FEF8883DF91CF911F910F912A
:10061000FF90EF90DF90CF90BF90AF9008951F9222
:100620000F920FB60F9211242F933F938F939F93A6
:10063000AF93BF9380910A0290910B02A0910C029C
:10064000B0910D023091090223E0230F2D3758F5A8
:100650000196A11DB11D2093090280930A02909377
:100660000B02A0930C02B0930D02809105029091B1
:100670000602A0910702B09108020196A11DB11DCA
:100680008093050290930602A0930702B09308029C
:10069000BF91AF919F918F913F912F910F900FBE7E
:1006A0000F901F90189526E8230F0296A11DB11DEB
:1006B000D2CF1F920F920FB60F9211240BB60F924A
:1006C0002F933F934F935F936F937F938F939F935A
:1006D000AF93BF93EF93FF9348E251E064E271E080
:1006E00090E080E00E945502FF91EF91BF91AF91A1
:1006F0009F918F917F916F915F914F913F912F913A
:100700000F900BBE0F900FBE0F901F9018951F9269
:100710000F920FB60F9211240BB60F922F933F93A7
:100720004F935F936F937F938F939F93AF93BF93F9
:10073000EF93FF9348EA50E064EA70E083E090E0D2
:100740000E945502FF91EF91BF91AF919F918F91C0
:100750007F916F915F914F913F912F910F900BBEC1
:100760000F900FBE0F901F9018951F920F920FB60B
:100770000F9211240BB60F922F933F934F935F93D9
:100780006F937F938F939F93AF93BF93EF93FF9359
:1007900048E950E064E970E082E090E00E94550290
:1007A000FF91EF91BF91AF919F918F917F916F9149
:1007B0005F914F913F912F910F900BBE0F900FBE05
:1007C0000F901F9018951F920F920FB60F92112441
:1007D0000BB60F922F933F934F935F936F937F933B
:1007E0008F939F93AF93BF93EF93FF9348E850E0AD
:1007F00064E870E081E090E00E945502FF91EF9183
:10080000BF91AF919F918F917F916F915F914F9128
:100810003F912F910F900BBE0F900FBE0F901F9026
:100820001895789484B5826084BD84B5816084BD58
:1008300085B5826085BD85B5816085BD80916E007E
:10084000816080936E0010928100809181008260AF
:1008500080938100809181008160809381008091EC
:1008600080008160809380008091B10084608093DB
:10087000B1008091B00081608093B00080919100C0
:1008800082608093910080919100816080939100BB
:10089000809190008160809390008091A10082609F
:1008A0008093A1008091A10081608093A10080913C
:1008B000A00081608093A0008091210182608093DC
:1008C000210180912101816080932101809120018B
:1008D00081608093200180917A00846080937A0007
:1008E00080917A00826080937A0080917A008160A2
:1008F00080937A0080917A00806880937A001092C9
:10090000C10080919E02803308F068C0E8EAF1E0FF
:100910002491E2E6F1E08491882399F090E0880F39
:10092000991FFC01E45DFE4FA591B491FC01EA5BC7
:10093000FE4F859194918FB7F894EC91E22BEC9354
:100940008FBF80919E02282F30E0F901EE0FFF1F2C
:10095000E20FF31FE25FFD4F9081907C92609083E5
:1009600010929F021092A0022CE0622F0E94A70515
:10097000829FB001112430E020E0AB01420F531FF1
:10098000FA01EE0FFF1FE40FF51FE25FFD4F9081AC
:1009900096FD16C02F5F3F4F2C30310571F7813027
:1009A00061F51092800082E08093810010928500B2
:1009B00010928400B19A80916F00826080936F00E2
:1009C000E0919E028E2F90E0FC01EE0FFF1FE80FDA
:1009D000F91FE25FFD4F8081806480838AE090E0B0
:1009E0000E944D01C0E0D0E090E080E00E944D0107
:1009F0002097D1F30E940000F7CF823061F410926B
:100A0000900080939100109295001092940088BB02
:100A100080937100D5CF833069F41092A00082E0FA
:100A20008093A1001092A5001092A40089BB80932E
:100A30007200C6CF8111C4CF1092200182E0809352
:100A4000210110922501109224018ABB809373002A
:100A5000B7CF80910002803398F491E0980F909383
:100A6000000280939E0290E0FC01EE0FFF1FE80F52
:100A7000F91FE25FFD4F88EB9BE09283818308952D
:100A80008FEF80939E020895052E97FB1EF400942D
:100A90000E945B0557FD07D00E94760507FC03D036
:100AA0004EF40C945B0550954095309521953F4F41
:100AB0004F4F5F4F089590958095709561957F4F4A
:100AC0008F4F9F4F08950E949805A59F900DB49F4A
:100AD000900DA49F800D911D11240895B7FF0C94D3
:100AE00063050E946305821B930B0895A1E21A2EF1
:100AF000AA1BBB1BFD010DC0AA1FBB1FEE1FFF1FC2
:100B0000A217B307E407F50720F0A21BB30BE40B11
:100B1000F50B661F771F881F991F1A9469F7609558
:100B20007095809590959B01AC01BD01CF01089512
:100B3000A29FB001B39FC001A39F700D811D11241E
:100B4000911DB29F700D811D1124911D0895991B57
:100B500079E004C0991F961708F0961B881F7A95B4
:100B6000C9F780950895EE0FFF1F881F8BBF079070
:0A0B7000F691E02D1994F894FFCFE0
:00000001FF
