:020000040000FA
:100000000C943E010C946F010C946F010C946F01E1
:100010000C946F010C946F010C946F010C946F01A0
:100020000C946F010C946F010C946F010C946F0190
:100030000C946F010C946F010C946F010C946F0180
:100040000C946F010C946F010C946F010C946F0170
:100050000C946F010C946F010C946F010C94BF050C
:100060000C946F010C9433060C9409060C946F01E8
:100070000C946F010C946F010C946F010C946F0140
:100080000C946F010C946F010C946F010C946F0130
:100090000C946F010C946F010C946F010C946F0120
:1000A0000C946F010C946F010C946F010C946F0110
:1000B0000C946F010C946F010C946F010C946F0100
:1000C0000C946F010C946F010C946F010C946F01F0
:1000D0000C946F010C946F010C946F010C946F01E0
:1000E0000C946F010C941E040C9466020C94410B4A
:1000F0000C9475040C943B020C9483040C946104DE
:100100000C941A040C94BB040C9434020C944B020F
:100110000C9422040C944F020C9461020C945D0226
:100120000C9430020C9452040C9425040C94530249
:100130000C9426020C9408050C9469060C94380261
:100140000C9467020C942C020C9445020C946B02E4
:100150000C9441020C945902000021002400270055
:100160002A002D00300033000101000004010701C6
:100170000A0100002200250028002B002E0031007B
:10018000340002010000050108010B0100002000FD
:100190002300260029002C002F003200000100005F
:1001A00003010601090105050505070508080808FA
:1001B000020202020A0A08080404040401010101FF
:1001C00001010101030303030303030304070707FA
:1001D0000C0C0C0C0C0C0C0C02020202060606069F
:1001E000060606060B0B0B0B0B0B0B0B010210206C
:1001F000200808102040102040800201020108045D
:1002000002010102040810204080804020100804F0
:100210000201800402018040201008040201080449
:10022000020101020408102040800102040810208D
:10023000408000000A0B02090C0D0E0807030401A0
:1002400000000000000000000000000000000000AE
:10025000000000000000000000000000000012117B
:10026000100000000000000000000000000000007E
:1002700000000000000000006906410B11241FBEB1
:10028000CFEFD1E2DEBFCDBF00E00CBF12E0A0E0B7
:10029000B2E0E6E0FBE100E00BBF02C007900D9288
:1002A000AE37B107D9F723E0AEE7B2E001C01D9247
:1002B000AF3CB207E1F711E0CDE3D1E000E006C0CA
:1002C00021970109802FFE010E944A0BCC33D107F0
:1002D00080E00807A9F70E9443070C94710D0C9465
:1002E0000000CF93DF93AC018091B703EAEBF3E01A
:1002F00020E0821334C0A0EAB3E030E090E060E494
:1003000078E0C3E6D0E8231709F45CC0FA01E90FEE
:10031000F11DE081EE2309F455C080ED8E0F8A3087
:1003200008F50E2E000CFF0BE550FE4F80815A960B
:100330008C935A9781E0890FFA01E80FF11DE08153
:10034000EE3249F45A968C915A9780685A968C935B
:100350005A9782E0890F3F5F1196982FD4CF119260
:100360002F5FC7CF8FEB8E0F8A3130F40E2E000C2B
:10037000FF0BEC50FE4FDACF8FE98E0F8A3130F44D
:100380000E2E000CFF0BEC52FE4FD0CFE03221F4CA
:100390005A961C925A97CECFEE3221F45A96DC939D
:1003A0005A97C8CFEA3221F45A96CC935A97C2CFC3
:1003B000EF3521F45A967C935A97BCCF5A966C939A
:1003C0005A97B8CFDF91CF91089596E0899FD001D9
:1003D0001124AF5CBC4F90967C936E935F9791E035
:1003E00091969C939197E0919E03F0919F03909139
:1003F0009D03992339F0309751F0811108C0809105
:100400004D031994309719F05C968C91FACF0895AA
:100410008150823108F05AC0E82FF0E08827EC5E66
:10042000FD4F8F4F0C944A0B3402380226022C02E7
:10043000300266023B02410245024B024F02530268
:1004400059025D026602610267026B0280918000C0
:100450008F77809380000895809180008F7DF9CF01
:1004600080918000877FF5CF84B58F7784BD089514
:1004700084B58F7DFBCF8091B0008F778093B000E3
:1004800008958091B0008F7DF9CF809190008F7793
:10049000809390000895809190008F7DF9CF809196
:1004A0009000877FF5CF8091A0008F778093A00088
:1004B00008958091A0008F7DF9CF8091A000877F63
:1004C000F5CF809120018F7780932001089580914E
:1004D00020018F7DF9CF80912001877FF5CFCF93C9
:1004E000DF93282F30E0F901EE5CFD4F8491F90194
:1004F000E451FE4FD491F901EA55FE4FC491CC234B
:10050000A1F081110E940802EC2FF0E0EE0FFF1F16
:10051000E457FE4FA591B491EC91ED2381E090E07A
:1005200009F480E0DF91CF91089580E090E0FACF68
:100530001F93CF93DF93282F30E0F901EE5CFD4F3E
:100540008491F901E451FE4FD491F901EA55FE4F2F
:10055000C491CC23A9F0162F81110E940802EC2F20
:10056000F0E0EE0FFF1FEE58FE4FA591B4918FB74C
:10057000F894EC91111108C0D095DE23DC938FBF65
:10058000DF91CF911F910895DE2BF8CFCF93DF93AA
:10059000C82FD0E08091B803D81758F4ED2FF0E0C1
:1005A000E056FC4F6091A30387850E949802DF5FAD
:1005B000F1CFEC2FF0E0E056FC4F6091A103878172
:1005C000DF91CF910C949802CF93DF93C82FD0E0A6
:1005D0008091B703D81758F4ED2FF0E0E056FC4FA8
:1005E0006091A10387810E949802DF5FF1CFEC2F19
:1005F000F0E0E056FC4F6091A3038785DF91CF9137
:100600000C9498029091B703EAEBF3E080E098171E
:1006100019F011928F5FFBCF80E00E94E40280E02E
:100620000C94C6021F93CF93DF93C82FD0E0C0561F
:10063000DC4F6091A0038F810E94980210E06A96BF
:100640008091B8031817A8F4E12FF0E0888190E0BA
:10065000012E02C0959587950A94E2F780FF07C0A6
:10066000E056FC4F6091A20387850E9498021F5FAD
:10067000E7CFDF91CF911F9108950F931F93CF93F1
:10068000C82FE82FF0E0E056FC4F6091A203878569
:100690000E94980201E010E002C0000F111FCA95ED
:1006A000E2F7C0E08091B703C81788F4EC2FF0E0C0
:1006B000E056FC4F828D90E080239123892B29F016
:1006C0006091A00387810E949802CF5FEBCFCF910A
:1006D0001F910F910895CF93DF9390E0FC01E451B7
:1006E000FE4F24918A559E4FFC0184918823C9F0C6
:1006F00090E0880F991FFC01E85AFE4FA591B49134
:10070000FC01EE58FE4FC591D49161110DC09FB709
:10071000F8948C91209582238C93888128232883B8
:100720009FBFDF91CF910895623051F49FB7F89445
:100730003C91822F809583238C93E8812E2BEFCFE1
:100740008FB7F894EC912E2B2C938FBFEACF823089
:10075000910538F0880F991F880F991F0597019709
:10076000F1F708952FB7F89460918A0270918B0287
:1007700080918C0290918D022FBF08950F931F934B
:10078000CF93DF93C82FD62F86E0C89FF0011124A6
:10079000EF5CFC4F11A2878D90A181309105F1F0A3
:1007A00058F082309105F1F1039709F440C0DF91D0
:1007B000CF911F910F9108956623C9F361E070E016
:1007C0008C2F0E94E5010E94B2036093890370930D
:1007D0008A0380938B0390938C03E9CF0E94B2032A
:1007E0000091890310918A0320918B0330918C032F
:1007F000AB01BC01401B510B620B730B80919B033F
:1008000090919C03B0E0A0E084179507A607B70776
:1008100048F462E070E08C2FDF91CF911F910F912F
:100820000C94E50163E070E0D111C1CFF4CF70E02A
:1008300060E0F1CF862F642F0C946B03862F642F1A
:100840000C949802862F0C946F02AF92BF92CF92B5
:10085000DF92EF92FF920F931F93CF93DF936C0180
:100860007B018B01040F151FEB015E01AE18BF0861
:10087000C017D10759F06991D601ED91FC91019013
:10088000F081E02DC6011995892B79F7C501DF911B
:10089000CF911F910F91FF90EF90DF90CF90BF907D
:1008A000AF900895FC01538D448D252F30E0842FA7
:1008B00090E0821B930B541710F0CF960895019788
:1008C0000895FC01918D828D981761F0A28DAE0F75
:1008D000BF2FB11D5D968C91928D9F5F9F73928FFC
:1008E00090E008958FEF9FEF0895FC01918D828D28
:1008F000981731F0828DE80FF11D858D90E00895F5
:100900008FEF9FEF0895FC01918D228D892F90E04C
:10091000805C9F4F821B91098F73992708958EE801
:1009200092E00E94830421E0892B09F420E0822FC9
:100930000895FC01A48DA80FB92FB11DA35ABF4F74
:100940002C91848D90E001968F739927848FA689CE
:10095000B7892C93A089B1898C91837080648C9322
:10096000938D848D981306C00288F389E02D8081D1
:100970008F7D80830895EF92FF920F931F93CF9303
:10098000DF93EC0181E0888F9B8D8C8D98131AC0CA
:10099000E889F989808185FF15C09FB7F894EE89B1
:1009A000FF896083E889F98980818370806480830E
:1009B0009FBF81E090E0DF91CF911F910F91FF9059
:1009C000EF900895F62E0B8D10E00F5F1F4F0F7301
:1009D0001127E02E8C8D8E110CC00FB607FCFACFBC
:1009E000E889F989808185FFF5CFCE010E949904BD
:1009F000F1CFEB8DEC0FFD2FF11DE35AFF4FF0828D
:100A00009FB7F8940B8FEA89FB8980818062CFCFF2
:100A1000CF93DF93EC01888D8823B9F0AA89BB8935
:100A2000E889F9898C9185FD03C0808186FD0DC020
:100A30000FB607FCF7CF8C9185FFF2CF808185FF41
:100A4000EDCFCE010E949904E9CFDF91CF910895B7
:100A500080E090E0892B29F00E948F0481110E9490
:100A6000000080E090E0892B49F080E090E0892B45
:100A700029F00E94000081110E94000080E090E0B7
:100A8000892B49F080E090E0892B29F00E9400003A
:100A900081110E94000080E090E0892B49F080E005
:100AA00090E0892B29F00E94000081110C94000035
:100AB0000895CF93DF93EC0180912B0390912C0349
:100AC000009759F020912D0330912E032C173D07EC
:100AD00020F081E0DF91CF910895BE016F5F7F4FDD
:100AE0000E94770C009789F090932C0380932B033E
:100AF000D0932E03C0932D0320912F033091300308
:100B0000232B39F7FC011082E4CF80E0E3CF0F9371
:100B10001F93CF93DF938C01EC0109900020E9F73C
:100B20002197C81BD90BCE010E94590520912B0398
:100B300030912C03811117C02115310519F0C9011D
:100B40000E94EE0B10922C0310922B031092300394
:100B500010922F0310922E0310922D03DF91CF914C
:100B60001F910F910895D0933003C0932F03B801C4
:100B7000C901DF91CF911F910F910C946A0D1F92C3
:100B80000F920FB60F9211242F933F938F939F9341
:100B9000AF93BF9380918A0290918B02A0918C02B7
:100BA000B0918D023091890223E0230F2D3758F543
:100BB0000196A11DB11D2093890280938A02909312
:100BC0008B02A0938C02B0938D028091850290914C
:100BD0008602A0918702B09188020196A11DB11DE5
:100BE0008093850290938602A0938702B093880237
:100BF000BF91AF919F918F913F912F910F900FBE19
:100C00000F901F90189526E8230F0296A11DB11D85
:100C1000D2CF1F920F920FB60F9211240BB60F92E4
:100C20002F933F934F935F936F937F938F939F93F4
:100C3000AF93BF93EF93FF938EE892E00E949904E5
:100C4000FF91EF91BF91AF919F918F917F916F91A4
:100C50005F914F913F912F910F900BBE0F900FBE60
:100C60000F901F9018951F920F920FB60F9211249C
:100C70000BB60F922F938F939F93EF93FF93E09177
:100C80009E02F0919F028081E091A402F091A50262
:100C900082FD1DC090818091A7028F5F8F7320918C
:100CA000A802821741F0E091A702F0E0E257FD4F61
:100CB000958F8093A702FF91EF919F918F912F9134
:100CC0000F900BBE0F900FBE0F901F901895808154
:100CD000F2CF109291021092900288EE93E0A0E081
:100CE000B0E08093920290939302A0939402B09309
:100CF000950288E592E090938F0280938E0285ECB6
:100D000090E090939B0280939A0284EC90E0909301
:100D10009D0280939C0280EC90E090939F028093D0
:100D20009E0281EC90E09093A1028093A00282EC5D
:100D300090E09093A3028093A20286EC90E09093BF
:100D4000A5028093A4021092A7021092A80210920A
:100D5000A9021092AA0280ED97E09093C7038093B6
:100D6000C6031092C9031092C8031092CA031092CE
:100D7000B7031092B9031092C2031092C3031092EA
:100D8000C4031092C5031092A4031092A5031092FD
:100D900033031092370310923603109238038AE619
:100DA00092E09093320380933103EDE4F3E01082FC
:100DB000148213821582369683E0E938F807B9F772
:100DC00085E092E0909394038093930381E092E016
:100DD000909396038093950384E080939703809388
:100DE000980389E092E090939203809391038AE0C4
:100DF00090E090939A038093990384EF91E090930D
:100E00009C0380939B0310929F0310929E03109269
:100E10008D0310928E0310928F0310929003109204
:100E20009D0310922C0310922B0310922E0310920C
:100E30002D031092300310922F0390E080E00E9467
:100E4000590520912B0330912C03811113C02115DA
:100E5000310519F0C9010E94EE0B10922C0310927B
:100E60002B031092300310922F0310922E03109236
:100E70002D0308951092300310922F0362E772E061
:100E8000C9010C946A0DCF93DF93CDB7DEB72C97D1
:100E90000FB6F894DEBF0FBECDBF789484B58260E4
:100EA00084BD84B5816084BD85B5826085BD85B50E
:100EB000816085BD80916E00816080936E0010928C
:100EC0008100809181008260809381008091810007
:100ED0008160809381008091800081608093800098
:100EE0008091B10084608093B1008091B0008160F6
:100EF0008093B000809191008260809391008091F6
:100F00009100816080939100809190008160809336
:100F100090008091A10082608093A1008091A10047
:100F200081608093A1008091A00081608093A000E7
:100F30008091210182608093210180912101816053
:100F40008093210180912001816080932001809114
:100F50007A00846080937A0080917A008260809326
:100F60007A0080917A00816080937A0080917A0083
:100F7000806880937A001092C10080911F02909146
:100F80002002A0912102B091220289879A87AB8723
:100F9000BC8788E0E3E2F2E0DE01119601900D9259
:100FA0008A95E1F71092A4031092A5031092A6036C
:100FB00084E08093B70388E08093B8031092A00385
:100FC00081E08093A2038093A1031092A303FE010A
:100FD0003196AFEAB3E0CE01099621912D93E8173F
:100FE000F907D9F789858093A7038A858093A80399
:100FF0008B858093A9038C858093AA0310E0809150
:10100000B703181798F4812F90E09C0120563C4FAD
:10101000790161E0F90187810E946B036091A1036E
:10102000F70187810E9498021F5FE9CF10E080914D
:10103000B803181798F4812F90E09C0120563C4F7C
:10104000790161E0F90187850E946B036091A30338
:10105000F70187850E9498021F5FE9CF0E94020373
:1010600088E097E09093C7038093C6031092C9036A
:101070001092C8031092CA03E0919E02F0919F0261
:1010800082E08083E0919A02F0919B021082E091CD
:101090009C02F0919D028FEC80831092A602E09159
:1010A000A202F091A30286E08083E091A002F09179
:1010B000A102808180618083E091A002F091A10271
:1010C000808188608083E091A002F091A1028081FC
:1010D00080688083E091A002F091A10280818F7DE1
:1010E000808388248394412C512C32014394A6E0C0
:1010F0002A2E80929D030E94B20300918D031091CD
:101100008E0320918F0330919003AB01BC01401BF3
:10111000510B620B730B8091990390919A03B0E08D
:10112000A0E084179507A607B70708F0ECC110E008
:1011300080919703181760F4E0919303F091940362
:10114000E10FF11D62E080810E946B031F5FF0CF11
:10115000912C80919803981608F061C0E92CF12C2D
:10116000E0919503F0919603EE0DFF1D61E0808103
:101170000E946B03E0919503F0919603EE0DFF1D25
:1011800060E080810E949802D301C201092C04C052
:10119000880F991FAA1FBB1F0A94D2F75C016C012C
:1011A000C094D094312C80919703381608F5032D04
:1011B00010E0E0919303F0919403E00FF11F808120
:1011C0000E946F020C5F1F4F000F111FF801EF5CB0
:1011D000FC4F892B41F4808191818A299B2991833D
:1011E00080833394E0CF808191818C219D21F7CF42
:1011F000E0919503F0919603EE0DFF1D61E0808173
:101200000E9498028091950390919603E80EF91E32
:1012100060E0F70180810E946B0393949ACF71E3A1
:10122000E72E73E0F72E8701F801878D90A1892BB7
:1012300039F4148ECC24CA94DC2CD68EC58E11A21F
:101240000A5F1F4F2DE633E02017310769F7D12CD5
:1012500080919703D81608F052C0C12CAD2CB12C48
:10126000AA0CBB1CC501875C9C4F5C0120919803B4
:10127000C21608F042C0F501608171810C2C02C0D9
:10128000769567950A94E2F7D29E900111242C0D71
:10129000311DE1E3F3E080E0458D568D24173507DD
:1012A00009F4EDC18F5F36968A30B1F760FF23C035
:1012B000E1E3F3E090E080E0448D411117C0E0915C
:1012C0009103F0919203E20FF31F4081289EF001F9
:1012D000299EF00D1124EF5CFC4F448F368F258F33
:1012E00010A2178E61E00E94BE0305C001963696DB
:1012F0008A30910509F7C394B9CFD394A9CFD12CE3
:10130000F70181A18111D82EF6E0EF0EF11CE01655
:10131000F106B1F70E94B20360938D0370938E03C0
:1013200080938F0390939003DD2009F4ECC08091AB
:101330005203882309F4E7C0809150039091510330
:10134000019709F0E0C010914D030E94B203111102
:10135000DFC080912F0390913003892BF1F063E778
:1013600072E080912B0390912C030E94610D892BD8
:10137000A1F480918402811110C0809284021092A5
:101380008302109282020E94B20360937E027093E5
:101390007F0280938002909381028091840288234F
:1013A00009F444C00E94B20300917E0210917F02B2
:1013B00020918002309181026B017C01C01AD10A18
:1013C000E20AF30A97018601043F11402105310525
:1013D00068F160937E0270937F0280938002909305
:1013E000810280910002882580930002882309F4FD
:1013F000DEC080912B0390912C030E94710180919B
:1014000082029091830201969093830280938202DC
:10141000089764F01092840288E792E00E948705A2
:1014200080912B0390912C030E9471018091A50360
:101430008111EBC03FB7F8948091850290918602AC
:10144000A0918702B091880226B5A89B05C02F3FC6
:1014500019F00196A11DB11D3FBFBA2FA92F982FDA
:101460008827820F911DA11DB11D42E0880F991F91
:10147000AA1FBB1F4A95D1F72091CA034091C2030E
:101480005091C3036091C4037091C5036C017D0149
:10149000C41AD50AE60AF70A4091C8035091C90355
:1014A000211104C04091C6035091C703052E000CC2
:1014B000660B770BC416D506E606F7060CF485C056
:1014C0008093C2039093C303A093C403B093C50356
:1014D0008091B9039091A40391117AC0222309F459
:1014E00069C01092CA038091B9038F5F8093B903DA
:1014F0009091B803891710F01092B9038091B90345
:101500000E943D0362C010929D030E94B20321CF4E
:10151000612F8EE892E00E94BB0442E050E060E759
:1015200072E08EE892E00E942504133451F482E7C1
:1015300092E00E94870580912B0390912C030E94DA
:1015400071018FEB810F843008F403CF1A3209F454
:1015500000CF133209F4FDCE80912F039091300318
:1015600084309105E8F419831A828C010F5F1F4FB4
:10157000C8010E945905882399F020912B033091CE
:101580002C0380912F0390913003BE016F5F7F4F3A
:10159000820F931F0E946A0D1093300300932F0354
:1015A00080912B0390912C030E947101D2CE0E9456
:1015B000020325CF0E94E4028091C8039091C903E1
:1015C000892B09F490CF8092CA030E94280591CDFF
:1015D000222391F01092CA038091B9038F5F809308
:1015E000B9039091B703891710F01092B903809155
:1015F000B9030E941203E9CF0E94C6028091C8037A
:101600009091C903892B41F3DECF8091A40310E0B0
:1016100081111AC08091B8031817B8F6812F0E9463
:101620003D038091C6039091C7030E94A703812FB9
:101630000E94E4028091C8039091C903009711F0C1
:101640000E94A7031F5FE6CF8091B703181708F029
:10165000BCCF812F0E9412038091C6039091C703D3
:101660000E94A703812F0E94C6028091C803909117
:10167000C903009711F00E94A7031F5FE5CF6170B7
:1016800032CE80912B0390912C03009711F00C9493
:10169000EE0B0895EE0FFF1F881F8BBF0790F6918A
:1016A000E02D19940F931F93CF93DF938230910510
:1016B00010F482E090E0E091CD03F091CE0330E0B1
:1016C00020E0B0E0A0E0309799F42115310509F44D
:1016D0004AC0281B390B24303105D8F58A819B81FB
:1016E0006115710589F1FB0193838283FE0111C0AD
:1016F000408151810281138148175907E0F0481752
:10170000590799F4109761F012960C93129713965B
:101710001C933296CF01DF91CF911F910F910895C5
:101720000093CD031093CE03F4CF2115310551F072
:101730004217530738F0A901DB019A01BD01DF010F
:10174000F801C1CFEF01F9CF9093CE038093CD0381
:10175000CDCFFE01E20FF31F819391932250310907
:1017600039832883D7CF2091CB033091CC03232B0F
:1017700041F420911B0230911C023093CC03209342
:10178000CB032091190230911A022115310541F441
:101790002DB73EB740911D0250911E02241B350B00
:1017A000E091CB03F091CC03E217F307A0F42E1BDA
:1017B0003F0B2817390778F0AC014E5F5F4F2417B5
:1017C000350748F04E0F5F1F5093CC034093CB0377
:1017D000819391939FCFF0E0E0E09CCFCF93DF9394
:1017E0000097E9F0FC01329713821282A091CD0399
:1017F000B091CE03ED0130E020E01097A1F42081FC
:101800003181820F931F2091CB033091CC03281795
:10181000390709F061C0F093CC03E093CB03DF916B
:10182000CF910895EA01CE17DF07E8F54A815B8181
:101830009E0141155105B1F7E901FB83EA83499106
:101840005991C40FD51FEC17FD0761F48081918178
:101850000296840F951FE901998388838281938181
:101860009B838A83F0E0E0E012968D919C91139720
:101870000097B9F52D913C911197CD010296820FF9
:10188000931F2091CB033091CC032817390739F6E9
:10189000309751F51092CE031092CD03B093CC0344
:1018A000A093CB03BCCFD383C28340815181840FEB
:1018B000951FC817D90761F44E5F5F4F88819981E2
:1018C000480F591F518340838A819B819383828370
:1018D0002115310509F0B0CFF093CE03E093CD038D
:1018E0009ECFFD01DC01C0CF13821282D7CF4F9271
:1018F0005F926F927F928F929F92AF92BF92CF92A0
:10190000DF92EF92FF920F931F93CF93DF938C019F
:10191000009799F4CB01DF91CF911F910F91FF9028
:10192000EF90DF90CF90BF90AF909F908F907F907F
:101930006F905F904F900C94520BFC01E60FF71FD5
:101940009C0122503109E217F30708F4AEC0D90117
:10195000CD91DC911197C617D70720F1C530D1057D
:1019600078F0CE0104978617970750F0C61BD70B67
:101970002297C193D1936D937C93CF010E94EE0B7C
:10198000C801DF91CF911F910F91FF90EF90DF90F1
:10199000CF90BF90AF909F908F907F906F905F900F
:1019A0004F9008955B01AC1ABD0A4C018C0E9D1E30
:1019B000A091CD03B091CE03512C412CF12CE12C00
:1019C000109731F58091CB039091CC038815990540
:1019D00009F05CC04616570608F058C080911902FD
:1019E00090911A02009741F48DB79EB740911D0265
:1019F00050911E02841B950BE817F90708F055C09B
:101A0000F093CC03E093CB03F90171836083B8CFEB
:101A10008D919C91119712966C90129713967C90D1
:101A20001397A815B90559F56C0142E0C40ED11CF5
:101A3000CA14DB0420F1AC014A195B09DA011296E1
:101A4000159780F06282738251834083D9016D9330
:101A50007C93E114F10471F0D7011396FC93EE939B
:101A600012978ECF22968C0F9D1FF9019183808350
:101A7000F301EFCFF093CE03E093CD0381CF48166F
:101A8000590608F42C017D01D3019ACFCB010E94A5
:101A9000520B7C01009749F0AE01B8010E94580D2D
:101AA000C8010E94EE0B87016BCF10E000E068CF09
:101AB000FB01DC0102C001900D9241505040D8F76B
:101AC0000895FB01DC018D91019080190110D9F37B
:101AD000990B0895FB01DC0101900D920020E1F7C4
:101AE000089511E0CDE3D1E000E006C0802FFE01B3
:101AF0000E944A0B2196011DCE33D10780E00807D2
:101B0000A9F7F894FFCF010607080902030405317D
:101B100032334134353642373839432A3023440092
:101B200000CF0380002D2B292734331D1716351BBA
:101B3000193F065B4F666D7D077F6F777C395E7955
:101B4000713D76300E763800543F7367506D783EA5
:101B50003E00766E5B004080630800000000BB041E
:101B60002504520408058304610475040000000084
:101B70001A041E0422040D0A0031323334004131AC
:041B800043320000EC
:020000040003F7
:10E000000D9489F10D94B2F10D94B2F10D94B2F129
:10E010000D94B2F10D94B2F10D94B2F10D94B2F1F0
:10E020000D94B2F10D94B2F10D94B2F10D94B2F1E0
:10E030000D94B2F10D94B2F10D94B2F10D94B2F1D0
:10E040000D94B2F10D94B2F10D94B2F10D94B2F1C0
:10E050000D94B2F10D94B2F10D94B2F10D94B2F1B0
:10E060000D94B2F10D94B2F10D94B2F10D94B2F1A0
:10E070000D94B2F10D94B2F10D94B2F10D94B2F190
:10E080000D94B2F10D94B2F10D94B2F10D94B2F180
:10E090000D94B2F10D94B2F10D94B2F10D94B2F170
:10E0A0000D94B2F10D94B2F10D94B2F10D94B2F160
:10E0B0000D94B2F10D94B2F10D94B2F10D94B2F150
:10E0C0000D94B2F10D94B2F10D94B2F10D94B2F140
:10E0D0000D94B2F10D94B2F10D94B2F10D94B2F130
:10E0E0000D94B2F141546D656761323536300041AF
:10E0F000726475696E6F206578706C6F72657220DE
:10E1000073746B3530305632206279204D4C530099
:10E11000426F6F746C6F616465723E004875683F52
:10E1200000436F6D70696C6564206F6E203D200048
:10E130004350552054797065202020203D20005FF9
:10E140005F4156525F415243485F5F3D2000415658
:10E1500052204C696243205665723D20004743437C
:10E160002056657273696F6E203D20004350552024
:10E1700049442020202020203D20004C6F7720663D
:10E18000757365202020203D20004869676820665F
:10E190007573652020203D200045787420667573D6
:10E1A00065202020203D20004C6F636B2066757336
:10E1B000652020203D20004D617220203720323024
:10E1C000313300312E362E3800342E332E350056A2
:10E1D00023202020414444522020206F7020636F70
:10E1E00064652020202020696E73747275637469E1
:10E1F0006F6E2061646472202020496E74657272B3
:10E20000757074006E6F20766563746F7200726A49
:10E210006D702020006A6D70200057686174207056
:10E220006F72743A00506F7274206E6F7420737541
:10E2300070706F72746564004D7573742062652030
:10E2400061206C6574746572002000577269747483
:10E25000696E672045450052656164696E672045B7
:10E26000450045452065727220636E743D00504F35
:10E27000525400303D5A65726F2061646472003FF1
:10E280003D43505520737461747300403D454550C3
:10E29000524F4D207465737400423D426C696E6B41
:10E2A000204C454400453D44756D70204545505215
:10E2B0004F4D00463D44756D7020464C415348001B
:10E2C000483D48656C70004C3D4C69737420492F83
:10E2D0004F20506F72747300513D51756974005234
:10E2E0003D44756D702052414D00563D73686F7707
:10E2F00020696E7465727275707420566563746FF0
:10E30000727300593D506F727420626C696E6B00BD
:10E310002A0011241FBECFEFD1E2DEBFCDBF01E046
:10E320000CBF12E0A0E0B2E0EEE1FDEF03E00BBFB6
:10E3300002C007900D92A030B107D9F712E0A0E01B
:10E34000B2E001C01D92AE30B107E1F70F9460F367
:10E350000D948DFE01E20EBF0FEF0DBF11241FBE05
:10E360000D9460F30D9400F020E030E040ED57E0B4
:10E3700005C0FA013197F1F72F5F3F4F2817390792
:10E38000C0F308959C01260F311DC901A0E0B0E043
:10E390002F5F3F4FABBFFC018791882361F08093D3
:10E3A000C6008091C00086FFFCCF8091C0008064D1
:10E3B0008093C000EACF08958DE08093C6008091DD
:10E3C000C00086FFFCCF8091C00080648093C000B5
:10E3D0008AE08093C6008091C00086FFFCCF8091C8
:10E3E000C00080648093C00008950F94C2F10F9420
:10E3F000DCF10895FC019081992359F09093C600B7
:10E400008091C00086FFFCCF8091C0008064809323
:10E41000C0003196992379F70895282F982F929567
:10E420009F70892F805D8A3308F0895F8093C600D2
:10E430008091C00086FFFCCF8091C00080648093F3
:10E44000C000822F8F70982F905D9A3308F0995FEB
:10E450009093C6008091C00086FFFCCF8091C000E1
:10E4600080648093C00008959C01FB01853691056E
:10E470001CF46330710594F0C90164E670E00F94F8
:10E480002EFE605D7F4F6093C6008091C00086FFC6
:10E49000FCCF8091C00080648093C0002B30310598
:10E4A00014F43297B4F0C90164E670E00F942EFEC4
:10E4B0006AE070E00F942EFE605D7F4F6093C600AF
:10E4C0008091C00086FFFCCF8091C0008064809363
:10E4D000C000C9016AE070E00F942EFEC0968093E0
:10E4E000C6008091C00086FFFCCF8091C000806490
:10E4F0008093C00008951F93182F8EE692EE60E07F
:10E500000F94C2F11093C6008091C00086FFFCCF2B
:10E510008091C00080648093C0000F94DCF11F9153
:10E5200008952F923F924F925F926F927F928F92B7
:10E530009F92AF92BF92CF92DF92EF92FF920F9392
:10E540001F93DF93CF93CDB7DEB762970FB6F894E2
:10E55000DEBF0FBECDBF382E622ECA01DB015C01CB
:10E560006D01772420E2222E2E010894411C511CBB
:10E570008BC081E0A81680E0B80681E0C80680E084
:10E58000D80628F0C601AA27BB270F940DF2BB2797
:10E59000AD2D9C2D8B2D0F940DF28A2D0F940DF225
:10E5A0002092C6008091C00086FFFCCF8091C00001
:10E5B00080648093C0009DE29093C6008091C0006B
:10E5C00086FFFCCF8091C00080648093C0002092C1
:10E5D000C6008091C00086FFFCCF8091C00080649F
:10E5E0008093C00019828601750188249924A1E0D6
:10E5F0003A1651F03A1620F0B2E03B1661F409C029
:10E600000BBFF701779007C0C7010F9477FE782EF4
:10E6100002C0F7017080872D0F940DF22092C60082
:10E620008091C00086FFFCCF8091C0008064809301
:10E63000C000872D8052F401EF70F0708F3520F408
:10E64000E40DF51D708204C0E40DF51D8EE280839B
:10E650000894E11CF11C011D111D0894811C911CE2
:10E6600090E18916910409F0C2CF80E190E0A0E02A
:10E67000B0E0A80EB91ECA1EDB1E198AC2010F9493
:10E68000FAF10F94DCF16A94662009F072CF629679
:10E690000FB6F894DEBF0FBECDBFCF91DF911F91B3
:10E6A0000F91FF90EF90DF90CF90BF90AF909F9031
:10E6B0008F907F906F905F904F903F902F90089534
:10E6C0002F923F924F925F926F927F928F929F9282
:10E6D000AF92BF92CF92DF92EF92FF920F931F9370
:10E6E000DF93CF93CDB7DEB7CD53D1400FB6F894BB
:10E6F000DEBF0FBECDBF01E20EBF0FEF0DBF94B75F
:10E70000F894A89514BE80916000886180936000A1
:10E7100010926000789493FF05C0E0910002F091A0
:10E7200001021995279A2F9A8091C00082608093E8
:10E73000C00080E18093C40088E18093C1000000A4
:10E74000EE24FF24870144E0A42EB12CCC24DD2448
:10E7500024C0C5010197F1F70894E11CF11C011DCB
:10E76000111D21E2E2162EE4F20620E0020720E06D
:10E77000120718F031E0C32ED12CC801B70127ECE5
:10E780003BE140E050E00F9441FE611571058105C9
:10E79000910519F485B1805885B98091C00087FD35
:10E7A00003C0C114D104A9F2A6014F5F5F4FC25E3E
:10E7B000DE4F59834883CE51D140C25EDE4F8881FF
:10E7C0009981CE51D140019711F00D9410FEC05D9A
:10E7D000DE4F19821882C053D14060E0C15DDE4F28
:10E7E0001882CF52D14088249924C35DDE4F19820C
:10E7F0001882CD52D140C05EDE4F188219821A8233
:10E800001B82C052D140CE5CDE4F188219821A8220
:10E810001B82C253D140EE24FF2487010BBFF701B6
:10E8200007911691C45CDE4F19830883CC53D14005
:10E830000D940BFEC25EDE4F28813981CE51D1404E
:10E840002130310509F52091C600C25EDE4F1982E4
:10E850001882CE51D14022C02F5F3F4F4F4F5F4FA4
:10E86000213082E138078AE7480780E0580780F0C6
:10E87000C45CDE4FE881F981CC53D140EF5FFF4F9C
:10E8800019F0EE27FF27099420E030E040E050E047
:10E890008091C00087FFE0CF2091C600C35DDE4FAE
:10E8A00048815981CD52D1404F5F5F4FC35DDE4FEC
:10E8B00059834883CD52D140213209F063C64A3092
:10E8C000510508F05FC60894811C911C53E0851621
:10E8D000910409F059C600E010E018C081E280936D
:10E8E000C6008091C00086FFFCCF8091C00080648C
:10E8F0008093C0002F5F3F4F2931310579F70F9486
:10E90000DCF10F5F1F4F0530110519F020E030E0FA
:10E91000E5CF10920A0210920B0210920C02109294
:10E920000D02109206021092070210920802109235
:10E930000902109202021092030210920402109235
:10E9400005028FEE90EE60E00F94F5F180E191EE1C
:10E9500060E00F94C2F18091C00087FFFCCF9091DE
:10E96000C600903608F09F759032B8F09093C600BC
:10E970008091C00086FFFCCF8091C00080648093AE
:10E98000C000A0E2A093C6008091C00086FFFCCF2B
:10E990008091C00080648093C000983409F4D7C18E
:10E9A0009934B8F4923409F459C1933458F490333B
:10E9B00019F1903308F4E3C59F33A1F1903409F0C5
:10E9C000DEC5BDC0953409F470C1963409F0D7C5D1
:10E9D00098C1923509F42BC2933538F49C3409F46C
:10E9E000F5C1913509F0CBC518C2963509F445C279
:10E9F000993509F0C4C567C483E792EE62E00F94CD
:10EA0000F5F110920602109207021092080210927D
:10EA1000090210920A0210920B0210920C0210923C
:10EA20000D0213C18FE792EE62E00F94F5F18FEEC5
:10EA300090EE60E00F94F5F181E291EE60E00F94CA
:10EA4000C2F187EB91EE60E00F94F5F180E391EE77
:10EA500060E00F94C2F184EE90EE60E00F94F5F167
:10EA60008FE391EE60E00F94C2F186E090E061E008
:10EA700070E00F9434F20F94DCF18DE591EE60E0DC
:10EA80000F94C2F189EC91EE60E00F94F5F18EE401
:10EA900091EE60E00F94C2F183EC91EE60E00F9490
:10EAA000F5F18CE691EE60E00F94C2F18EE10F94E7
:10EAB0000DF288E90F940DF281E00F940DF20F949E
:10EAC000DCF18BE791EE60E00F94C2F119E0E0E039
:10EAD000F0E010935700E4918E2F0F940DF20F94F5
:10EAE000DCF18AE891EE60E00F94C2F1E3E0F0E03F
:10EAF00010935700E4918E2F0F940DF20F94DCF1D8
:10EB000089E991EE60E00F94C2F1E2E0F0E0109349
:10EB10005700E4918E2F0F940DF20F94DCF188EAE8
:10EB200091EE60E00F94C2F1E1E0F0E01093570045
:10EB30001491812F0F940DF20F94DCF107CF8BE825
:10EB400092EE62E00F94F5F18BE492EE60E00F94A8
:10EB5000F5F10F94DCF100E010E019C0C8016F2D51
:10EB60000F947FFEFF2031F489E492EE60E00F9471
:10EB7000C2F10BC0F092C6008091C00086FFFCCFAE
:10EB80008091C00080648093C0000F5F1F4FC80158
:10EB900081519F41A0E0B0E0ABBFFC01F790BAE229
:10EBA000FB1621F0E2E000301E07C1F60F94DCF105
:10EBB0000F94DCF187E592EE60E00F94F5F10F948D
:10EBC000DCF1CC24DD2400E010E01EC0C8010F946D
:10EBD00077FEF82E882331F489E492EE60E00F94FA
:10EBE000C2F10BC08093C6008091C00086FFFCCFAD
:10EBF0008091C00080648093C000FE1419F00894D6
:10EC0000C11CD11C0F5F1F4FC80181519F41A0E063
:10EC1000B0E0ABBFFC01E790FAE2EF1621F022E092
:10EC20000030120799F60F94DCF10F94DCF182E6C4
:10EC300092EE60E00F94C2F1C60161E070E00F94C3
:10EC400034F20F94DCF10F94DCF110920202109276
:10EC50000302109204021092050278CE89E992EE26
:10EC600062E00F94F5F1279A2F9A16C02F9880E052
:10EC700090E0E0EDF7E03197F1F7019684369105E9
:10EC8000C1F72F9A80E090E0E0EDF7E03197F1F7DF
:10EC9000019684369105C1F78091C00087FFE6CFC9
:10ECA0008091C00087FFFCCF64C485EA92EE62E0E9
:10ECB0000F94F5F140910202509103026091040219
:10ECC0007091050281E020E10F9491F2809102029F
:10ECD00090910302A0910402B091050280509F4FD1
:10ECE000AF4FBF4F8093020290930302A0930402A0
:10ECF000B093050280509041A040B04008F426CE69
:10ED0000A4CF83EB92EE62E00F94F5F140910602FE
:10ED100050910702609108027091090280E020E1A1
:10ED20000F9491F28091060290910702A09108023F
:10ED3000B091090280509F4FAF4FBF4F80930602A2
:10ED400090930702A0930802B0930902FFCD80ECD4
:10ED500092EE62E00F94F5F183E792EE60E00F949B
:10ED6000F5F18FE792EE60E00F94F5F18BE892EE0B
:10ED700060E00F94F5F189E992EE60E00F94F5F10F
:10ED800085EA92EE60E00F94F5F183EB92EE60E09D
:10ED90000F94F5F180EC92EE60E00F94F5F187ECC2
:10EDA00092EE60E00F94F5F188ED92EE60E00F9442
:10EDB000F5F18FED92EE60E00F94F5F18AEE92EEB0
:10EDC00060E00F94F5F183E093EEBDCD87EC92EE19
:10EDD00062E00F94F5F181E40F947BF282E40F94EA
:10EDE0007BF283E40F947BF284E40F947BF285E45E
:10EDF0000F947BF286E40F947BF287E40F947BF20E
:10EE000088E40F947BF28AE40F947BF28BE40F94F6
:10EE10007BF28CE40F947BF299CD88ED92EE62E068
:10EE20000F94F5F1772473948824992409C48FED05
:10EE300092EE62E00F94F5F140910A0250910B02BC
:10EE400060910C0270910D0282E020E10F9491F22A
:10EE500080910A0290910B02A0910C02B0910D02D8
:10EE600080509F4FAF4FBF4F80930A0290930B0289
:10EE7000A0930C02B0930D0269CD8AEE92EE62E08F
:10EE80000F94F5F184EE90EE60E00F94F5F18FECC5
:10EE900091EE60E00F94F5F1662477244301CC5D98
:10EEA000DE4F19821882C452D140D401C301B695F5
:10EEB000A79597958795CA5DDE4F88839983AA8326
:10EEC000BB83C652D140CC5DDE4FA881B981C4520C
:10EED000D1401196CC5DDE4FB983A883C452D14096
:10EEE000CD0162E070E00F9434F2B0E2B093C6005E
:10EEF0008091C00086FFFCCF8091C0008064809329
:10EF0000C000EDE2E093C6008091C00086FFFCCF18
:10EF10008091C00080648093C000F0E2F093C6004E
:10EF20008091C00086FFFCCF8091C00080648093F8
:10EF3000C000CA5DDE4FE880F9800A811B81C6529D
:10EF4000D140BB27A12F902F8F2D0F940DF2CA5DBA
:10EF5000DE4F8881C652D1400F940DF2B0E2FB2EF5
:10EF6000F092C6008091C00086FFFCCF8091C00067
:10EF700080648093C0000DE30093C6008091C000C0
:10EF800086FFFCCF8091C00080648093C00010E2B7
:10EF90001093C6008091C00086FFFCCF8091C00016
:10EFA00080648093C0008BBEF3012791C65DDE4F65
:10EFB0002883CA52D140A22EBB24CC24DD2408943D
:10EFC000611C711C811C911C8BBEF3018791282E42
:10EFD0003324442455240894611C711C811C911C09
:10EFE0008BBEF3013791C55DDE4F3883CB52D140E4
:10EFF0000894611C711C811C911C8BBEF30147910C
:10F00000C45DDE4F4883CC52D140ADEFEA2EAFEF66
:10F01000FA2EAFEF0A2FAFEF1A2F6E0C7F1C801E57
:10F02000911E142D032DF22CEE24EA0CFB1C0C1D5A
:10F030001D1D0F940DF220E22093C6008091C000A8
:10F0400086FFFCCF8091C00080648093C000C65DC5
:10F05000DE4F8881CA52D1400F940DF230E23093D6
:10F06000C6008091C00086FFFCCF8091C000806404
:10F070008093C000C45DDE4F8881CC52D1400F9494
:10F080000DF240E24093C6008091C00086FFFCCFA5
:10F090008091C00080648093C000C55DDE4F888190
:10F0A000CB52D1400F940DF250E25093C6008091A4
:10F0B000C00086FFFCCF8091C00080648093C000B8
:10F0C0008FEFE8168FEFF80680E0080780E018075A
:10F0D00031F484E092EE60E00F94C2F1DFC0D80119
:10F0E000C7018070907CA070B0708050904CA040A0
:10F0F000B040D1F52FEF3FE340E050E0E222F322B1
:10F1000004231523CA5DDE4FA880B980CA80DB8046
:10F11000C652D140AE0CBF1CC01ED11EAA0CBB1CD7
:10F12000CC1CDD1C8EE092EE60E00F94C2F1BB2798
:10F13000A12F902F8F2D0F940DF28E2D0F940DF285
:10F1400030E23093C6008091C00086FFFCCF8091F2
:10F15000C00080648093C0004EE34093C60080915D
:10F16000C00086FFFCCF87C08EE09EEFA0E0B0E03D
:10F17000E822F9220A231B239CE0E91694E9F90608
:10F1800090E0090790E0190709F088C0C45DDE4FE0
:10F19000A881CC52D140EA2EFF2400E010E0102FCD
:10F1A0000F2DFE2CEE24C55DDE4FB881CB52D14031
:10F1B000EB0EF11C011D111DD601C501817090706F
:10F1C000A070B070DC0199278827E80EF91E0A1F8D
:10F1D0001B1F20EF30E040E050E0A222B322C42207
:10F1E000D52241E1AA0CBB1CCC1CDD1C4A95D1F7F1
:10F1F000EA0CFB1C0C1D1D1D81E090E0A0E0B0E0BE
:10F20000282239224A225B2235E1220C331C441C7D
:10F21000551C3A95D1F7E20CF31C041D151D57013E
:10F220006801AA0CBB1CCC1CDD1C85E192EE60E0E1
:10F230000F94C2F1C801AA27BB270F940DF2BB2778
:10F24000A12F902F8F2D0F940DF28E2D0F940DF274
:10F2500090E29093C6008091C00086FFFCCF809121
:10F26000C00080648093C000AEE3A093C60080918C
:10F27000C00086FFFCCF8091C00080648093C000F6
:10F28000C601AA27BB270F940DF2BB27AD2D9C2DDD
:10F290008B2D0F940DF28A2D0F940DF20F94DCF14B
:10F2A000CC5DDE4FE881F981C452D140F99709F471
:10F2B0004DCBF4E0EF2EF12C012D112D6E0C7F1CA7
:10F2C000801E911EF2CD83E093EE62E00F94F5F183
:10F2D0008AE192EE60E00F94C2F18091C00087FF56
:10F2E000FCCF1091C6001F751093C6008091C0001E
:10F2F00086FFFCCF8091C00080648093C0000F9493
:10F30000DCF1812F81548A3108F036C1163409F4BA
:10F3100095C0173490F4133409F44EC0143430F40B
:10F320001134F1F0123409F01DC130C0143409F465
:10F3300059C0153409F016C16BC01A3409F4C4C0A1
:10F340001B3438F4173409F48FC0183409F00AC19B
:10F35000A1C01B3409F4D2C01C3409F003C1E8C0B9
:10F360008FEF81B90DC082B1809582B980E090E0C5
:10F37000E0EDF7E03197F1F70196883C9105C1F790
:10F380008091C00087FFEFCF12B8EFC08FEF84B934
:10F390000DC085B1809585B980E090E0E0EDF7E0A3
:10F3A0003197F1F70196883C9105C1F78091C00033
:10F3B00087FFEFCF15B8D9C08FEF87B90DC088B1DF
:10F3C000809588B980E090E0E0EDF7E03197F1F7C3
:10F3D0000196883C9105C1F78091C00087FFEFCF6F
:10F3E00018B8C3C08FEF8AB90DC08BB180958BB9A7
:10F3F00080E090E0E0EDF7E03197F1F70196883C8E
:10F400009105C1F78091C00087FFEFCF1BB8ADC059
:10F410008FEF8DB90DC08EB180958EB980E090E0F0
:10F42000E0EDF7E03197F1F70196883C9105C1F7DF
:10F430008091C00087FFEFCF1EB897C08FEF80BBD1
:10F440000DC081B3809581BB80E090E0E0EDF7E0F6
:10F450003197F1F70196883C9105C1F78091C00082
:10F4600087FFEFCF11BA81C08FEF83BB0DC084B38C
:10F47000809584BB80E090E0E0EDF7E03197F1F714
:10F480000196883C9105C1F78091C00087FFEFCFBE
:10F4900014BA6BC08FEF809301010FC080910201FD
:10F4A00080958093020180E090E0E0EDF7E03197F5
:10F4B000F1F70196883C9105C1F78091C00087FF64
:10F4C000EDCF1092020151C08FEF809304010FC065
:10F4D0008091050180958093050180E090E0E0ED4A
:10F4E000F7E03197F1F70196883C9105C1F78091DB
:10F4F000C00087FFEDCF1092050137C08FEF8093DA
:10F5000007010FC08091080180958093080180E079
:10F5100090E0E0EDF7E03197F1F70196883C910536
:10F52000C1F78091C00087FFEDCF109208011DC088
:10F530008FEF80930A010FC080910B01809580931B
:10F540000B0180E090E0E0EDF7E03197F1F70196F4
:10F55000883C9105C1F78091C00087FFEDCF1092E4
:10F560000B0103C085E292EEEEC98091C00087FFD7
:10F57000FCCF8091C600EAC988E392EEE4C98CE131
:10F5800091EEE1C988249924933011F1943028F444
:10F59000913089F09230B8F408C0953061F195301F
:10F5A000F0F0963009F048C043C02B3109F042C951
:10F5B00091E06BE13FC96227C15DDE4F2883CF52E6
:10F5C000D14092E037C9B22FA0E0622793E032C960
:10F5D000822F90E0A82BB92B622794E02BC92E3004
:10F5E00009F039C3622795E0C05DDE4F19821882A9
:10F5F000C053D1401FC9E1E0F0E0EC0FFD1FC05D3A
:10F60000DE4F08811981C053D140E00FF11F2083E4
:10F610000F5F1F4FC05DDE4F19830883C053D14079
:10F6200062270A171B0709F005C9D80196E002C92D
:10F63000261709F010C303C0973009F0FBC87724E0
:10F640009981933109F412C19431C8F4963009F4C8
:10F65000D8C0973050F4923009F406C1933009F4C1
:10F660006DC0913009F059C253C0913109F477C08F
:10F67000923108F0BBC0903109F04FC2F5C098310B
:10F6800009F487C0993150F4953109F4EFC09531F0
:10F6900008F4C6C1963109F040C2C2C19A3109F4DA
:10F6A0006CC09A3108F491C09B3109F45BC09D3164
:10F6B00009F033C29D81903359F48F81882311F46E
:10F6C0009EE11CC0813011F091E018C098E916C08D
:10F6D000892F807591F0903539F4E0E0F0E089E011
:10F6E0008093570094910AC0983539F4E3E0F0E034
:10F6F00089E080935700949101C090E01A821B82A8
:10F700008D818C831D829E831F8227E030E009C299
:10F710001A8288E08B8381E48C8386E58D8382E581
:10F720008E8389E48F8383E5888780E589878FE5E9
:10F730008A8782E38B872BE030E0F3C18A818139AD
:10F7400041F0823941F0803911F48FE005C080E04A
:10F7500003C082E001C08AE01A828B8344C0772410
:10F76000739482C08D81882311F48EE12CC0813086
:10F7700011F081E028C088E926C01A82E1E0F0E0BB
:10F7800089E08093570084918B831C8224E030E0D1
:10F79000C8C18B81803589F48C81883039F4E2E0EE
:10F7A000F0E089E08093570084910DC0E0E0F0E044
:10F7B00089E080935700849106C0E3E0F0E089E09F
:10F7C0008093570084911A82DFCF8D81836C99E0FA
:10F7D000E1E0F0E0082E90935700E89507B600FCB2
:10F7E000FDCF1A821B8223E030E09BC180EC8A832C
:10F7F000CE5CDE4F188219821A821B82C253D1401E
:10F800008EC18A8190E0A0E0B0E0582F44273327D2
:10F8100022278B8190E0A0E0B0E0DC0199278827C7
:10F82000282B392B4A2B5B2B8D8190E0A0E0B0E098
:10F83000282B392B4A2B5B2B8C8190E0A0E0B0E089
:10F84000BA2FA92F982F8827282B392B4A2B5B2BCF
:10F85000220F331F441F551FC05EDE4F288339839C
:10F860004A835B83C052D1401A8259C13A81C95C34
:10F87000DE4F3883C753D140CA5CDE4F1882C6536F
:10F88000D1408B81C82EDD24CA5CDE4F488159816E
:10F89000C653D140C42AD52A933109F082C0CE5C28
:10F8A000DE4F88819981AA81BB81C253D1408050AB
:10F8B000904CA340B04030F583E0CE5CDE4FE88052
:10F8C000F9800A811B81C253D140F70100935B008C
:10F8D00080935700E89507B600FCFDCFCE5CDE4F65
:10F8E000088119812A813B81C253D14000501F4FAA
:10F8F0002F4F3F4FCE5CDE4F088319832A833B8313
:10F90000C253D140C05EDE4F488159816A817B81FC
:10F91000C052D140DE011B9631E08C9111962C91A2
:10F9200011971296C75CDE4F2883C953D140C85C3B
:10F93000DE4F1882C853D14090E0C85CDE4FE881AA
:10F94000F981C853D1408E2B9F2B0C01FA01609393
:10F950005B0030935700E89511244E5F5F4F6F4F67
:10F960007F4F0EEFE02E0FEFF02ECE0CDF1CC114F8
:10F97000D10499F685E0C05EDE4F088119812A81A5
:10F980003B81C052D140F80120935B008093570027
:10F99000E89507B600FCFDCF81E180935700E8951C
:10F9A00035C0C05EDE4F88819981AA81BB81C0527B
:10F9B000D140B695A795979587957C018601ABE0D8
:10F9C000AA2EB12CAC0EBD1E0BC0D5016D915D01F0
:10F9D000C7010F947FFE0894E11CF11C01501040F8
:10F9E0000115110591F7A60160E070E0440F551F65
:10F9F000661F771FC05EDE4FE880F9800A811B8199
:10FA0000C052D1404E0D5F1D601F711F1A82C05E33
:10FA1000DE4F488359836A837B83C052D1407FC0C5
:10FA2000FA80C55CDE4FF882CB53D140C65CDE4F16
:10FA30001882CA53D1408B81C82EDD24C65CDE4FAC
:10FA400008811981CA53D140C02AD12A1A828981DA
:10FA5000BE016D5F7F4F843121F59601C05EDE4FA0
:10FA6000E880F9800A811B81C052D1400BBFF701A9
:10FA700087919691DB018C9311969C936E5F7F4FDB
:10FA8000D801C7010296A11DB11DC05EDE4F88835B
:10FA90009983AA83BB83C052D14022503040F1F6F3
:10FAA00036C0C05EDE4F288139814A815B81C052F9
:10FAB000D1400894C108D108760100E010E0089414
:10FAC000C11CD11C0894E11CF11C011D111DE20E8A
:10FAD000F31E041F151F21BDBB27A52F942F832FB5
:10FAE00082BD2F5F3F4F4F4F5F4FF89A80B5DB01CC
:10FAF0008D93BD012E153F054007510761F7C05E8C
:10FB0000DE4F288339834A835B83C052D1409601FC
:10FB10002D5F3F4FFB01108204C080EC8A8322E0FE
:10FB200030E08BE18093C6008091C00086FFFCCF5F
:10FB30008091C00080648093C000C15DDE4FF88179
:10FB4000CF52D140F093C6008091C00086FFFCCF19
:10FB50008091C00080648093C000432F3093C60022
:10FB60008091C00086FFFCCF8091C00080648093AC
:10FB7000C000922F2093C6008091C00086FFFCCF6A
:10FB80008091C00080648093C0008EE08093C600A6
:10FB90008091C00086FFFCCF8091C000806480937C
:10FBA000C00065E1C15DDE4FE880CF52D1406E25D7
:10FBB00069276427FE01319610C090819093C6009A
:10FBC0008091C00086FFFCCF31968091C000806498
:10FBD0008093C0006927215030402115310569F715
:10FBE0006093C6008091C00086FFFCCF8091C0006A
:10FBF00080648093C00085B1805885B9772081F4F6
:10FC0000C15DDE4F0881CF52D1400F5FC15DDE4F35
:10FC10000883CF52D14090E0A0E0B0E00D941AF4F8
:10FC200027982F9880E090E020ED37E0F901319798
:10FC3000F1F7019684369105C9F700008091C00064
:10FC40008D7F8093C00081E180935700E895EE2777
:10FC5000FF270994FFCF90E00D941AF497FB092E2B
:10FC600007260AD077FD04D02ED006D000201AF443
:10FC7000709561957F4F0895F6F7909581959F4F08
:10FC80000895A1E21A2EAA1BBB1BFD010DC0AA1FDD
:10FC9000BB1FEE1FFF1FA217B307E407F50720F0F5
:10FCA000A21BB30BE40BF50B661F771F881F991F70
:10FCB0001A9469F760957095809590959B01AC01B9
:10FCC000BD01CF010895AA1BBB1B51E107C0AA1FAC
:10FCD000BB1FA617B70710F0A61BB70B881F991FED
:10FCE0005A95A9F780959095BC01CD010895F99991
:10FCF000FECF92BD81BDF89A992780B50895262F31
:10FD0000F999FECF1FBA92BD81BD20BD0FB6F89400
:0EFD1000FA9AF99A0FBE01960895F894FFCF63
:00000001FF
