:100000000C943E010C946F010C946F010C946F01E1
:100010000C946F010C946F010C946F010C946F01A0
:100020000C946F010C946F010C946F010C946F0190
:100030000C946F010C946F010C946F010C946F0180
:100040000C946F010C946F010C946F010C946F0170
:100050000C946F010C946F010C946F010C94BF050C
:100060000C946F010C9433060C9409060C946F01E8
:100070000C946F010C946F010C946F010C946F0140
:100080000C946F010C946F010C946F010C946F0130
:100090000C946F010C946F010C946F010C946F0120
:1000A0000C946F010C946F010C946F010C946F0110
:1000B0000C946F010C946F010C946F010C946F0100
:1000C0000C946F010C946F010C946F010C946F01F0
:1000D0000C946F010C946F010C946F010C946F01E0
:1000E0000C946F010C941E040C9466020C94410B4A
:1000F0000C9475040C943B020C9483040C946104DE
:100100000C941A040C94BB040C9434020C944B020F
:100110000C9422040C944F020C9461020C945D0226
:100120000C9430020C9452040C9425040C94530249
:100130000C9426020C9408050C9469060C94380261
:100140000C9467020C942C020C9445020C946B02E4
:100150000C9441020C945902000021002400270055
:100160002A002D00300033000101000004010701C6
:100170000A0100002200250028002B002E0031007B
:10018000340002010000050108010B0100002000FD
:100190002300260029002C002F003200000100005F
:1001A00003010601090105050505070508080808FA
:1001B000020202020A0A08080404040401010101FF
:1001C00001010101030303030303030304070707FA
:1001D0000C0C0C0C0C0C0C0C02020202060606069F
:1001E000060606060B0B0B0B0B0B0B0B010210206C
:1001F000200808102040102040800201020108045D
:1002000002010102040810204080804020100804F0
:100210000201800402018040201008040201080449
:10022000020101020408102040800102040810208D
:10023000408000000A0B02090C0D0E0807030401A0
:1002400000000000000000000000000000000000AE
:10025000000000000000000000000000000012117B
:10026000100000000000000000000000000000007E
:1002700000000000000000006906410B11241FBEB1
:10028000CFEFD1E2DEBFCDBF00E00CBF12E0A0E0B7
:10029000B2E0E6E0FBE100E00BBF02C007900D9288
:1002A000AE37B107D9F723E0AEE7B2E001C01D9247
:1002B000AF3CB207E1F711E0CDE3D1E000E006C0CA
:1002C00021970109802FFE010E944A0BCC33D107F0
:1002D00080E00807A9F70E9443070C94710D0C9465
:1002E0000000CF93DF93AC018091B703EAEBF3E01A
:1002F00020E0821334C0A0EAB3E030E090E060E494
:1003000078E0C3E6D0E8231709F45CC0FA01E90FEE
:10031000F11DE081EE2309F455C080ED8E0F8A3087
:1003200008F50E2E000CFF0BE550FE4F80815A960B
:100330008C935A9781E0890FFA01E80FF11DE08153
:10034000EE3249F45A968C915A9780685A968C935B
:100350005A9782E0890F3F5F1196982FD4CF119260
:100360002F5FC7CF8FEB8E0F8A3130F40E2E000C2B
:10037000FF0BEC50FE4FDACF8FE98E0F8A3130F44D
:100380000E2E000CFF0BEC52FE4FD0CFE03221F4CA
:100390005A961C925A97CECFEE3221F45A96DC939D
:1003A0005A97C8CFEA3221F45A96CC935A97C2CFC3
:1003B000EF3521F45A967C935A97BCCF5A966C939A
:1003C0005A97B8CFDF91CF91089596E0899FD001D9
:1003D0001124AF5CBC4F90967C936E935F9791E035
:1003E00091969C939197E0919E03F0919F03909139
:1003F0009D03992339F0309751F0811108C0809105
:100400004D031994309719F05C968C91FACF0895AA
:100410008150823108F05AC0E82FF0E08827EC5E66
:10042000FD4F8F4F0C944A0B3402380226022C02E7
:10043000300266023B02410245024B024F02530268
:1004400059025D026602610267026B0280918000C0
:100450008F77809380000895809180008F7DF9CF01
:1004600080918000877FF5CF84B58F7784BD089514
:1004700084B58F7DFBCF8091B0008F778093B000E3
:1004800008958091B0008F7DF9CF809190008F7793
:10049000809390000895809190008F7DF9CF809196
:1004A0009000877FF5CF8091A0008F778093A00088
:1004B00008958091A0008F7DF9CF8091A000877F63
:1004C000F5CF809120018F7780932001089580914E
:1004D00020018F7DF9CF80912001877FF5CFCF93C9
:1004E000DF93282F30E0F901EE5CFD4F8491F90194
:1004F000E451FE4FD491F901EA55FE4FC491CC234B
:10050000A1F081110E940802EC2FF0E0EE0FFF1F16
:10051000E457FE4FA591B491EC91ED2381E090E07A
:1005200009F480E0DF91CF91089580E090E0FACF68
:100530001F93CF93DF93282F30E0F901EE5CFD4F3E
:100540008491F901E451FE4FD491F901EA55FE4F2F
:10055000C491CC23A9F0162F81110E940802EC2F20
:10056000F0E0EE0FFF1FEE58FE4FA591B4918FB74C
:10057000F894EC91111108C0D095DE23DC938FBF65
:10058000DF91CF911F910895DE2BF8CFCF93DF93AA
:10059000C82FD0E08091B803D81758F4ED2FF0E0C1
:1005A000E056FC4F6091A30387850E949802DF5FAD
:1005B000F1CFEC2FF0E0E056FC4F6091A103878172
:1005C000DF91CF910C949802CF93DF93C82FD0E0A6
:1005D0008091B703D81758F4ED2FF0E0E056FC4FA8
:1005E0006091A10387810E949802DF5FF1CFEC2F19
:1005F000F0E0E056FC4F6091A3038785DF91CF9137
:100600000C9498029091B703EAEBF3E080E098171E
:1006100019F011928F5FFBCF80E00E94E40280E02E
:100620000C94C6021F93CF93DF93C82FD0E0C0561F
:10063000DC4F6091A0038F810E94980210E06A96BF
:100640008091B8031817A8F4E12FF0E0888190E0BA
:10065000012E02C0959587950A94E2F780FF07C0A6
:10066000E056FC4F6091A20387850E9498021F5FAD
:10067000E7CFDF91CF911F9108950F931F93CF93F1
:10068000C82FE82FF0E0E056FC4F6091A203878569
:100690000E94980201E010E002C0000F111FCA95ED
:1006A000E2F7C0E08091B703C81788F4EC2FF0E0C0
:1006B000E056FC4F828D90E080239123892B29F016
:1006C0006091A00387810E949802CF5FEBCFCF910A
:1006D0001F910F910895CF93DF9390E0FC01E451B7
:1006E000FE4F24918A559E4FFC0184918823C9F0C6
:1006F00090E0880F991FFC01E85AFE4FA591B49134
:10070000FC01EE58FE4FC591D49161110DC09FB709
:10071000F8948C91209582238C93888128232883B8
:100720009FBFDF91CF910895623051F49FB7F89445
:100730003C91822F809583238C93E8812E2BEFCFE1
:100740008FB7F894EC912E2B2C938FBFEACF823089
:10075000910538F0880F991F880F991F0597019709
:10076000F1F708952FB7F89460918A0270918B0287
:1007700080918C0290918D022FBF08950F931F934B
:10078000CF93DF93C82FD62F86E0C89FF0011124A6
:10079000EF5CFC4F11A2878D90A181309105F1F0A3
:1007A00058F082309105F1F1039709F440C0DF91D0
:1007B000CF911F910F9108956623C9F361E070E016
:1007C0008C2F0E94E5010E94B2036093890370930D
:1007D0008A0380938B0390938C03E9CF0E94B2032A
:1007E0000091890310918A0320918B0330918C032F
:1007F000AB01BC01401B510B620B730B80919B033F
:1008000090919C03B0E0A0E084179507A607B70776
:1008100048F462E070E08C2FDF91CF911F910F912F
:100820000C94E50163E070E0D111C1CFF4CF70E02A
:1008300060E0F1CF862F642F0C946B03862F642F1A
:100840000C949802862F0C946F02AF92BF92CF92B5
:10085000DF92EF92FF920F931F93CF93DF936C0180
:100860007B018B01040F151FEB015E01AE18BF0861
:10087000C017D10759F06991D601ED91FC91019013
:10088000F081E02DC6011995892B79F7C501DF911B
:10089000CF911F910F91FF90EF90DF90CF90BF907D
:1008A000AF900895FC01538D448D252F30E0842FA7
:1008B00090E0821B930B541710F0CF960895019788
:1008C0000895FC01918D828D981761F0A28DAE0F75
:1008D000BF2FB11D5D968C91928D9F5F9F73928FFC
:1008E00090E008958FEF9FEF0895FC01918D828D28
:1008F000981731F0828DE80FF11D858D90E00895F5
:100900008FEF9FEF0895FC01918D228D892F90E04C
:10091000805C9F4F821B91098F73992708958EE801
:1009200092E00E94830421E0892B09F420E0822FC9
:100930000895FC01A48DA80FB92FB11DA35ABF4F74
:100940002C91848D90E001968F739927848FA689CE
:10095000B7892C93A089B1898C91837080648C9322
:10096000938D848D981306C00288F389E02D8081D1
:100970008F7D80830895EF92FF920F931F93CF9303
:10098000DF93EC0181E0888F9B8D8C8D98131AC0CA
:10099000E889F989808185FF15C09FB7F894EE89B1
:1009A000FF896083E889F98980818370806480830E
:1009B0009FBF81E090E0DF91CF911F910F91FF9059
:1009C000EF900895F62E0B8D10E00F5F1F4F0F7301
:1009D0001127E02E8C8D8E110CC00FB607FCFACFBC
:1009E000E889F989808185FFF5CFCE010E949904BD
:1009F000F1CFEB8DEC0FFD2FF11DE35AFF4FF0828D
:100A00009FB7F8940B8FEA89FB8980818062CFCFF2
:100A1000CF93DF93EC01888D8823B9F0AA89BB8935
:100A2000E889F9898C9185FD03C0808186FD0DC020
:100A30000FB607FCF7CF8C9185FFF2CF808185FF41
:100A4000EDCFCE010E949904E9CFDF91CF910895B7
:100A500080E090E0892B29F00E948F0481110E9490
:100A6000000080E090E0892B49F080E090E0892B45
:100A700029F00E94000081110E94000080E090E0B7
:100A8000892B49F080E090E0892B29F00E9400003A
:100A900081110E94000080E090E0892B49F080E005
:100AA00090E0892B29F00E94000081110C94000035
:100AB0000895CF93DF93EC0180912B0390912C0349
:100AC000009759F020912D0330912E032C173D07EC
:100AD00020F081E0DF91CF910895BE016F5F7F4FDD
:100AE0000E94770C009789F090932C0380932B033E
:100AF000D0932E03C0932D0320912F033091300308
:100B0000232B39F7FC011082E4CF80E0E3CF0F9371
:100B10001F93CF93DF938C01EC0109900020E9F73C
:100B20002197C81BD90BCE010E94590520912B0398
:100B300030912C03811117C02115310519F0C9011D
:100B40000E94EE0B10922C0310922B031092300394
:100B500010922F0310922E0310922D03DF91CF914C
:100B60001F910F910895D0933003C0932F03B801C4
:100B7000C901DF91CF911F910F910C946A0D1F92C3
:100B80000F920FB60F9211242F933F938F939F9341
:100B9000AF93BF9380918A0290918B02A0918C02B7
:100BA000B0918D023091890223E0230F2D3758F543
:100BB0000196A11DB11D2093890280938A02909312
:100BC0008B02A0938C02B0938D028091850290914C
:100BD0008602A0918702B09188020196A11DB11DE5
:100BE0008093850290938602A0938702B093880237
:100BF000BF91AF919F918F913F912F910F900FBE19
:100C00000F901F90189526E8230F0296A11DB11D85
:100C1000D2CF1F920F920FB60F9211240BB60F92E4
:100C20002F933F934F935F936F937F938F939F93F4
:100C3000AF93BF93EF93FF938EE892E00E949904E5
:100C4000FF91EF91BF91AF919F918F917F916F91A4
:100C50005F914F913F912F910F900BBE0F900FBE60
:100C60000F901F9018951F920F920FB60F9211249C
:100C70000BB60F922F938F939F93EF93FF93E09177
:100C80009E02F0919F028081E091A402F091A50262
:100C900082FD1DC090818091A7028F5F8F7320918C
:100CA000A802821741F0E091A702F0E0E257FD4F61
:100CB000958F8093A702FF91EF919F918F912F9134
:100CC0000F900BBE0F900FBE0F901F901895808154
:100CD000F2CF109291021092900288EE93E0A0E081
:100CE000B0E08093920290939302A0939402B09309
:100CF000950288E592E090938F0280938E0285ECB6
:100D000090E090939B0280939A0284EC90E0909301
:100D10009D0280939C0280EC90E090939F028093D0
:100D20009E0281EC90E09093A1028093A00282EC5D
:100D300090E09093A3028093A20286EC90E09093BF
:100D4000A5028093A4021092A7021092A80210920A
:100D5000A9021092AA0280ED97E09093C7038093B6
:100D6000C6031092C9031092C8031092CA031092CE
:100D7000B7031092B9031092C2031092C3031092EA
:100D8000C4031092C5031092A4031092A5031092FD
:100D900033031092370310923603109238038AE619
:100DA00092E09093320380933103EDE4F3E01082FC
:100DB000148213821582369683E0E938F807B9F772
:100DC00085E092E0909394038093930381E092E016
:100DD000909396038093950384E080939703809388
:100DE000980389E092E090939203809391038AE0C4
:100DF00090E090939A038093990384EF91E090930D
:100E00009C0380939B0310929F0310929E03109269
:100E10008D0310928E0310928F0310929003109204
:100E20009D0310922C0310922B0310922E0310920C
:100E30002D031092300310922F0390E080E00E9467
:100E4000590520912B0330912C03811113C02115DA
:100E5000310519F0C9010E94EE0B10922C0310927B
:100E60002B031092300310922F0310922E03109236
:100E70002D0308951092300310922F0362E772E061
:100E8000C9010C946A0DCF93DF93CDB7DEB72C97D1
:100E90000FB6F894DEBF0FBECDBF789484B58260E4
:100EA00084BD84B5816084BD85B5826085BD85B50E
:100EB000816085BD80916E00816080936E0010928C
:100EC0008100809181008260809381008091810007
:100ED0008160809381008091800081608093800098
:100EE0008091B10084608093B1008091B0008160F6
:100EF0008093B000809191008260809391008091F6
:100F00009100816080939100809190008160809336
:100F100090008091A10082608093A1008091A10047
:100F200081608093A1008091A00081608093A000E7
:100F30008091210182608093210180912101816053
:100F40008093210180912001816080932001809114
:100F50007A00846080937A0080917A008260809326
:100F60007A0080917A00816080937A0080917A0083
:100F7000806880937A001092C10080911F02909146
:100F80002002A0912102B091220289879A87AB8723
:100F9000BC8788E0E3E2F2E0DE01119601900D9259
:100FA0008A95E1F71092A4031092A5031092A6036C
:100FB00084E08093B70388E08093B8031092A00385
:100FC00081E08093A2038093A1031092A303FE010A
:100FD0003196AFEAB3E0CE01099621912D93E8173F
:100FE000F907D9F789858093A7038A858093A80399
:100FF0008B858093A9038C858093AA0310E0809150
:10100000B703181798F4812F90E09C0120563C4FAD
:10101000790161E0F90187810E946B036091A1036E
:10102000F70187810E9498021F5FE9CF10E080914D
:10103000B803181798F4812F90E09C0120563C4F7C
:10104000790161E0F90187850E946B036091A30338
:10105000F70187850E9498021F5FE9CF0E94020373
:1010600088E097E09093C7038093C6031092C9036A
:101070001092C8031092CA03E0919E02F0919F0261
:1010800082E08083E0919A02F0919B021082E091CD
:101090009C02F0919D028FEC80831092A602E09159
:1010A000A202F091A30286E08083E091A002F09179
:1010B000A102808180618083E091A002F091A10271
:1010C000808188608083E091A002F091A1028081FC
:1010D00080688083E091A002F091A10280818F7DE1
:1010E000808388248394412C512C32014394A6E0C0
:1010F0002A2E80929D030E94B20300918D031091CD
:101100008E0320918F0330919003AB01BC01401BF3
:10111000510B620B730B8091990390919A03B0E08D
:10112000A0E084179507A607B70708F0ECC110E008
:1011300080919703181760F4E0919303F091940362
:10114000E10FF11D62E080810E946B031F5FF0CF11
:10115000912C80919803981608F061C0E92CF12C2D
:10116000E0919503F0919603EE0DFF1D61E0808103
:101170000E946B03E0919503F0919603EE0DFF1D25
:1011800060E080810E949802D301C201092C04C052
:10119000880F991FAA1FBB1F0A94D2F75C016C012C
:1011A000C094D094312C80919703381608F5032D04
:1011B00010E0E0919303F0919403E00FF11F808120
:1011C0000E946F020C5F1F4F000F111FF801EF5CB0
:1011D000FC4F892B41F4808191818A299B2991833D
:1011E00080833394E0CF808191818C219D21F7CF42
:1011F000E0919503F0919603EE0DFF1D61E0808173
:101200000E9498028091950390919603E80EF91E32
:1012100060E0F70180810E946B0393949ACF71E3A1
:10122000E72E73E0F72E8701F801878D90A1892BB7
:1012300039F4148ECC24CA94DC2CD68EC58E11A21F
:101240000A5F1F4F2DE633E02017310769F7D12CD5
:1012500080919703D81608F052C0C12CAD2CB12C48
:10126000AA0CBB1CC501875C9C4F5C0120919803B4
:10127000C21608F042C0F501608171810C2C02C0D9
:10128000769567950A94E2F7D29E900111242C0D71
:10129000311DE1E3F3E080E0458D568D24173507DD
:1012A00009F4EDC18F5F36968A30B1F760FF23C035
:1012B000E1E3F3E090E080E0448D411117C0E0915C
:1012C0009103F0919203E20FF31F4081289EF001F9
:1012D000299EF00D1124EF5CFC4F448F368F258F33
:1012E00010A2178E61E00E94BE0305C001963696DB
:1012F0008A30910509F7C394B9CFD394A9CFD12CE3
:10130000F70181A18111D82EF6E0EF0EF11CE01655
:10131000F106B1F70E94B20360938D0370938E03C0
:1013200080938F0390939003DD2009F4ECC08091AB
:101330005203882309F4E7C0809150039091510330
:10134000019709F0E0C010914D030E94B203111102
:10135000DFC080912F0390913003892BF1F063E778
:1013600072E080912B0390912C030E94610D892BD8
:10137000A1F480918402811110C0809284021092A5
:101380008302109282020E94B20360937E027093E5
:101390007F0280938002909381028091840288234F
:1013A00009F444C00E94B20300917E0210917F02B2
:1013B00020918002309181026B017C01C01AD10A18
:1013C000E20AF30A97018601043F11402105310525
:1013D00068F160937E0270937F0280938002909305
:1013E000810280910002882580930002882309F4FD
:1013F000DEC080912B0390912C030E94710180919B
:1014000082029091830201969093830280938202DC
:10141000089764F01092840288E792E00E948705A2
:1014200080912B0390912C030E9471018091A50360
:101430008111EBC03FB7F8948091850290918602AC
:10144000A0918702B091880226B5A89B05C02F3FC6
:1014500019F00196A11DB11D3FBFBA2FA92F982FDA
:101460008827820F911DA11DB11D42E0880F991F91
:10147000AA1FBB1F4A95D1F72091CA034091C2030E
:101480005091C3036091C4037091C5036C017D0149
:10149000C41AD50AE60AF70A4091C8035091C90355
:1014A000211104C04091C6035091C703052E000CC2
:1014B000660B770BC416D506E606F7060CF485C056
:1014C0008093C2039093C303A093C403B093C50356
:1014D0008091B9039091A40391117AC0222309F459
:1014E00069C01092CA038091B9038F5F8093B903DA
:1014F0009091B803891710F01092B9038091B90345
:101500000E943D0362C010929D030E94B20321CF4E
:10151000612F8EE892E00E94BB0442E050E060E759
:1015200072E08EE892E00E942504133451F482E7C1
:1015300092E00E94870580912B0390912C030E94DA
:1015400071018FEB810F843008F403CF1A3209F454
:1015500000CF133209F4FDCE80912F039091300318
:1015600084309105E8F419831A828C010F5F1F4FB4
:10157000C8010E945905882399F020912B033091CE
:101580002C0380912F0390913003BE016F5F7F4F3A
:10159000820F931F0E946A0D1093300300932F0354
:1015A00080912B0390912C030E947101D2CE0E9456
:1015B000020325CF0E94E4028091C8039091C903E1
:1015C000892B09F490CF8092CA030E94280591CDFF
:1015D000222391F01092CA038091B9038F5F809308
:1015E000B9039091B703891710F01092B903809155
:1015F000B9030E941203E9CF0E94C6028091C8037A
:101600009091C903892B41F3DECF8091A40310E0B0
:1016100081111AC08091B8031817B8F6812F0E9463
:101620003D038091C6039091C7030E94A703812FB9
:101630000E94E4028091C8039091C903009711F0C1
:101640000E94A7031F5FE6CF8091B703181708F029
:10165000BCCF812F0E9412038091C6039091C703D3
:101660000E94A703812F0E94C6028091C803909117
:10167000C903009711F00E94A7031F5FE5CF6170B7
:1016800032CE80912B0390912C03009711F00C9493
:10169000EE0B0895EE0FFF1F881F8BBF0790F6918A
:1016A000E02D19940F931F93CF93DF938230910510
:1016B00010F482E090E0E091CD03F091CE0330E0B1
:1016C00020E0B0E0A0E0309799F42115310509F44D
:1016D0004AC0281B390B24303105D8F58A819B81FB
:1016E0006115710589F1FB0193838283FE0111C0AD
:1016F000408151810281138148175907E0F0481752
:10170000590799F4109761F012960C93129713965B
:101710001C933296CF01DF91CF911F910F910895C5
:101720000093CD031093CE03F4CF2115310551F072
:101730004217530738F0A901DB019A01BD01DF010F
:10174000F801C1CFEF01F9CF9093CE038093CD0381
:10175000CDCFFE01E20FF31F819391932250310907
:1017600039832883D7CF2091CB033091CC03232B0F
:1017700041F420911B0230911C023093CC03209342
:10178000CB032091190230911A022115310541F441
:101790002DB73EB740911D0250911E02241B350B00
:1017A000E091CB03F091CC03E217F307A0F42E1BDA
:1017B0003F0B2817390778F0AC014E5F5F4F2417B5
:1017C000350748F04E0F5F1F5093CC034093CB0377
:1017D000819391939FCFF0E0E0E09CCFCF93DF9394
:1017E0000097E9F0FC01329713821282A091CD0399
:1017F000B091CE03ED0130E020E01097A1F42081FC
:101800003181820F931F2091CB033091CC03281795
:10181000390709F061C0F093CC03E093CB03DF916B
:10182000CF910895EA01CE17DF07E8F54A815B8181
:101830009E0141155105B1F7E901FB83EA83499106
:101840005991C40FD51FEC17FD0761F48081918178
:101850000296840F951FE901998388838281938181
:101860009B838A83F0E0E0E012968D919C91139720
:101870000097B9F52D913C911197CD010296820FF9
:10188000931F2091CB033091CC032817390739F6E9
:10189000309751F51092CE031092CD03B093CC0344
:1018A000A093CB03BCCFD383C28340815181840FEB
:1018B000951FC817D90761F44E5F5F4F88819981E2
:1018C000480F591F518340838A819B819383828370
:1018D0002115310509F0B0CFF093CE03E093CD038D
:1018E0009ECFFD01DC01C0CF13821282D7CF4F9271
:1018F0005F926F927F928F929F92AF92BF92CF92A0
:10190000DF92EF92FF920F931F93CF93DF938C019F
:10191000009799F4CB01DF91CF911F910F91FF9028
:10192000EF90DF90CF90BF90AF909F908F907F907F
:101930006F905F904F900C94520BFC01E60FF71FD5
:101940009C0122503109E217F30708F4AEC0D90117
:10195000CD91DC911197C617D70720F1C530D1057D
:1019600078F0CE0104978617970750F0C61BD70B67
:101970002297C193D1936D937C93CF010E94EE0B7C
:10198000C801DF91CF911F910F91FF90EF90DF90F1
:10199000CF90BF90AF909F908F907F906F905F900F
:1019A0004F9008955B01AC1ABD0A4C018C0E9D1E30
:1019B000A091CD03B091CE03512C412CF12CE12C00
:1019C000109731F58091CB039091CC038815990540
:1019D00009F05CC04616570608F058C080911902FD
:1019E00090911A02009741F48DB79EB740911D0265
:1019F00050911E02841B950BE817F90708F055C09B
:101A0000F093CC03E093CB03F90171836083B8CFEB
:101A10008D919C91119712966C90129713967C90D1
:101A20001397A815B90559F56C0142E0C40ED11CF5
:101A3000CA14DB0420F1AC014A195B09DA011296E1
:101A4000159780F06282738251834083D9016D9330
:101A50007C93E114F10471F0D7011396FC93EE939B
:101A600012978ECF22968C0F9D1FF9019183808350
:101A7000F301EFCFF093CE03E093CD0381CF48166F
:101A8000590608F42C017D01D3019ACFCB010E94A5
:101A9000520B7C01009749F0AE01B8010E94580D2D
:101AA000C8010E94EE0B87016BCF10E000E068CF09
:101AB000FB01DC0102C001900D9241505040D8F76B
:101AC0000895FB01DC018D91019080190110D9F37B
:101AD000990B0895FB01DC0101900D920020E1F7C4
:101AE000089511E0CDE3D1E000E006C0802FFE01B3
:101AF0000E944A0B2196011DCE33D10780E00807D2
:061B0000A9F7F894FFCFE5
:101B0600010504030209080706313233413435362C
:101B160042373839432A3023440000CF038000354A
:101B260034333132232D2F2E302B2C3F065B4F665C
:101B36006D7D077F6F777C395E79713D76300E76E5
:101B46003800543F7367506D783E3E00766E5B00FA
:101B56004080630800000000BB0425045204080509
:101B6600830461047504000000001A041E042204A4
:0E1B76000D0A00363134390041334336000089
:00000001FF
