:100000000C9436010C9467010C9467010C94670101
:100010000C9467010C9467010C9467010C946701C0
:100020000C9467010C9467010C9467010C946701B0
:100030000C9467010C944F060C9467010C946701B3
:100040000C9467010C9467010C9467010C94670190
:100050000C9467010C9467010C9467010C940506DD
:100060000C9467010C9418070C94EE060C9467012D
:100070000C9467010C9467010C9467010C94670160
:100080000C9467010C9467010C9467010C94670150
:100090000C9467010C9467010C9467010C94670140
:1000A0000C9467010C9467010C9467010C94670130
:1000B0000C9467010C9467010C9467010C94670120
:1000C0000C9467010C9467010C9467010C94670110
:1000D0000C9467010C9467010C9467010C94670100
:1000E0000C9467010C94DD010C94D7010C941B094E
:1000F0000C949E010C9434040C94C5010C941705C7
:100100000C9461040C94E5010C94CF010C948404CC
:100110000C94D3010C9499010C94B4010C94EB0150
:100120000C94BC010C94BF010C94B8010C94B00168
:100130000C94E1010C94C9010C9470040C94CA0451
:100140000C9492040C94EF01000020002300260080
:1001500029002C002F0032000001000003010601DD
:10016000090100002100240027002A002D00300092
:10017000330001010000040107010A0100000A0B1D
:1001800002090C0D0E080703040100000000000026
:10019000000000000000000000000000000000005F
:1001A000000000000000000012111000000000001C
:1001B000000000000000000000000000000000003F
:1001C000000001021020200808102040102040806C
:1001D000020102010804020101020408102040800B
:1001E0008040201008040201800402018040201099
:1001F00008040201080402010102040810204080E2
:100200000102040810204080000022002500280080
:100210002B002E003100340002010000050108010E
:100220000B0105050505070508080808020202027A
:100230000A0A080804040404010101010101010182
:100240000303030303030303040707070C0C0C0C4D
:100250000C0C0C0C02020202060606060606060636
:100260000B0B0B0B0B0B0B0B02001B0911241FBEFE
:10027000CFEFD1E2DEBFCDBF00E00CBF12E0A0E0C7
:10028000B2E0EEE7F5E100E00BBF02C007900D928F
:10029000A63EB107D9F723E0A6EEB2E001C01D9259
:1002A000AE3AB207E1F711E0C6E3D1E000E006C0E4
:1002B00021970109802FFE010E949B0AC533D107B7
:1002C00080E00807A9F70E9493070C94BD0A0C94DC
:1002D0000000282F30E0F901E458FE4F9491F90115
:1002E000EE53FE4F44912E5D3D4FF90124912223A0
:1002F00009F435C0992311F191509231F8F4E92FA6
:10030000F0E08827E957FE4F8F4F0C949B0AB80105
:10031000BC019901B001B4019E01BF01C501C90131
:10032000CF01D301D701DD01E1019E01E501EB0120
:10033000EF01809180008F7780938000E22FF0E0C2
:10034000EE0FFF1FE85FFD4FA591B4918FB7F894B2
:10035000EC91611148C040954E234C938FBF089596
:10036000809180008F7DE8CF80918000877FE4CFEF
:1003700084B58F7784BDE2CF84B58F7DFBCF80912C
:10038000B0008F778093B000D9CF8091B0008F7D7F
:10039000F9CF809190008F7780939000CFCF80919C
:1003A00090008F7DF9CF80919000877FF5CF80916D
:1003B000A0008F778093A000C1CF8091A0008F7D97
:1003C000F9CF8091A000877FF5CF809120018F77B2
:1003D00080932001B3CF809120018F7DF9CF809150
:1003E0002001877FF5CF4E2BB8CFCF93DF9390E0DE
:1003F000FC01EE53FE4F24918E5D9D4FFC018491D4
:100400008823D1F090E0880F991FFC01EE59FE4F30
:10041000A591B491FC01E85FFD4FC591D4916111A4
:100420000EC09FB7F8948C91E22FE0958E238C93A9
:100430002881E223E8839FBFDF91CF9108958FB792
:10044000F894EC91E22BEC938FBFF6CFCF92DF9232
:10045000EF92FF921F93CF93DF936B017C0180910A
:100460000202823051F08F3FF1F0DF91CF911F9166
:10047000FF90EF90DF90CF900895E8E6F2E0C4910E
:10048000C7FDF3CF61E082E00E94F501CC2309F4BF
:10049000DDC0C23009F00AC18091B100887F84605C
:1004A0008093B100D7C082E080930202E8E6F2E0D8
:1004B000C4918C2FCF3FC9F2C23009F468C060F4F8
:1004C000CC2379F1C13009F444C087FDCECF61E07F
:1004D00082E00E94F501DDCFC43009F499C008F430
:1004E00078C0C53091F710922001109221018091BF
:1004F0002101886080932101809121018160809396
:100500002101E4E2F2E0E491F0E0EE0FFF1FE85F8A
:10051000FD4F85919491E4ECF1E0E491E0938E033A
:10052000B1CF14BC15BC84B5826084BD85B5816033
:1005300085BDE4E2F2E0E491F0E0EE0FFF1FE85F3A
:10054000FD4F85919491E4ECF1E0E491E093950303
:1005500099CF109280001092810080918100886074
:100560008093810080918100816080938100E4E22A
:10057000F2E0E491F0E0EE0FFF1FE85FFD4F8591A0
:100580009491E4ECF1E0E491E09394037BCF10923A
:10059000B0001092B1008091B00082608093B000F2
:1005A0008091B10081608093B100E4E2F2E0E491D7
:1005B000F0E0EE0FFF1FE85FFD4F8591949190935F
:1005C000930380939203E4ECF1E0E491E0939103D0
:1005D00059CF109290001092910080919100886004
:1005E0008093910080919100816080939100E4E27A
:1005F000F2E0E491F0E0EE0FFF1FE85FFD4F859120
:100600009491E4ECF1E0E491E0939003C3E03ACFFD
:100610001092A0001092A1008091A10088608093A8
:10062000A1008091A10081608093A100E4E2F2E04A
:10063000E491F0E0EE0FFF1FE85FFD4F859194918C
:10064000E4ECF1E0E491E0938F031CCF85B5887F63
:10065000836085BDD9EF10E0A8EEB3E0A701960155
:100660000E94A30A28EE33E040E050E00E94790A9D
:10067000C23009F450C00CF086C0CC23E9F1C1307F
:1006800009F0F3CE8D2F912F9093890080938800ED
:100690002093A6033093A7034093A8035093A90384
:1006A00080916F00826080936F00DFCEC13049F48B
:1006B00080918100887F816080938100DFE71EE365
:1006C000CBCFC33039F480919100887F81608093D3
:1006D0009100F4CFC43039F48091A100887F81600B
:1006E0008093A100EBCFC53049F780912101887F2D
:1006F000816080932101E2CFD7BD2093AA0330937C
:10070000AB034093AC035093AD0380916E008260C5
:1007100080936E00AACED093B3002093A2033093AF
:10072000A3034093A4035093A503809170008260BB
:10073000809370009ACE8D2F912F90939900809383
:10074000980020939E0330939F034093A0035093FF
:10075000A1038091710082608093710086CE8D2FFD
:10076000912F9093A9008093A80020939A0330932F
:100770009B0340939C0350939D0380917200826081
:100780008093720072CEC43051F3ACF2C53009F0E0
:100790006CCE8D2F912F9093290180932801209367
:1007A0009603309397034093980350939903809155
:1007B000730082608093730058CE3FB7F8948091A5
:1007C000ED029091EE02A091EF02B091F00226B5F9
:1007D000A89B05C02F3F19F00196A11DB11D3FBF79
:1007E000BA2FA92F982F8827BC01CD01620F711D48
:1007F000811D911D42E0660F771F881F991F4A9542
:10080000D1F708958F929F92AF92BF92CF92DF92CD
:10081000EF92FF924B015C010E94DD036B017C01B2
:100820000E94DD036C197D098E099F09683E7340A3
:1008300081059105A8F321E0821A9108A108B10869
:1008400088EEC80E83E0D81EE11CF11C81149104CF
:10085000A104B10429F7FF90EF90DF90CF90BF90F3
:10086000AF909F908F900895AF92BF92CF92DF92FA
:10087000EF92FF920F931F93CF93DF936C017B0155
:100880008B01040F151FEB015E01AE18BF08C017E6
:10089000D10759F06991D601ED91FC910190F08159
:1008A000E02DC6011995892B79F7C501DF91CF910C
:1008B0001F910F91FF90EF90DF90CF90BF90AF907E
:1008C0000895FC01538D448D252F30E0842F90E056
:1008D000821B930B541710F0CF960895019708953B
:1008E000FC01918D828D981761F0A28DAE0FBF2F04
:1008F000B11D5D968C91928D9F5F9F73928F90E05A
:1009000008958FEF9FEF0895FC01918D828D9817C8
:1009100031F0828DE80FF11D858D90E008958FEF05
:100920009FEF0895FC01918D228D892F90E0805CCE
:100930009F4F821B91098F739927089581EF92E051
:100940000E94920421E0892B09F420E0822F08956F
:10095000FC01A48DA80FB92FB11DA35ABF4F2C9134
:10096000848D90E001968F739927848FA689B7892B
:100970002C93A089B1898C91837080648C93938D22
:10098000848D981306C00288F389E02D80818F7DC5
:1009900080830895EF92FF920F931F93CF93DF937D
:1009A000EC0181E0888F9B8D8C8D98131AC0E889AB
:1009B000F989808185FF15C09FB7F894EE89FF897A
:1009C0006083E889F98980818370806480839FBF18
:1009D00081E090E0DF91CF911F910F91FF90EF9018
:1009E0000895F62E0B8D10E00F5F1F4F0F73112728
:1009F000E02E8C8D8E110CC00FB607FCFACFE88963
:100A0000F989808185FFF5CFCE010E94A804F1CF3E
:100A1000EB8DEC0FFD2FF11DE35AFF4FF0829FB7D6
:100A2000F8940B8FEA89FB8980818062CFCFCF93C6
:100A3000DF93EC01888D8823B9F0AA89BB89E88906
:100A4000F9898C9185FD03C0808186FD0DC00FB6AC
:100A500007FCF7CF8C9185FFF2CF808185FFEDCF2A
:100A6000CE010E94A804E9CFDF91CF91089580E0E4
:100A700090E0892B29F00E949E0481110E940000C1
:100A800080E090E0892B49F080E090E0892B29F00C
:100A90000E94000081110E94000080E090E0892BFC
:100AA00049F080E090E0892B29F00E94000081113C
:100AB0000E94000080E090E0892B49F080E090E007
:100AC000892B29F00E94000081110C9400000895E8
:100AD000CF93DF93EC018991882311F18E3299F441
:100AE00068EC70E080E090E00E94260268EC70E024
:100AF00080E090E00E94020468EC70E080E090E00A
:100B00000E940204E8CF8D32B9F768E572E080E018
:100B100090E00E94260268E572E080E090E0EACF73
:100B2000DF91CF910895FC0101900020E9F7319702
:100B3000AF01481B590BBC0181EF92E00C943404C7
:100B40008F929F92AF92BF920F931F93CF93DF9399
:100B5000CDB7DEB7A1970FB6F894DEBF0FBECDBFFD
:100B600019A2423008F44AE08E010F5D1F4F842E17
:100B7000912CB12CA12CA50194010E94790AE62F99
:100B8000B901CA01EA30F4F4E05DD801EE938D01B9
:100B9000232B242B252B79F790E080E0109719F078
:100BA000CD010E949305A1960FB6F894DEBF0FBE4B
:100BB000CDBFDF91CF911F910F91BF90AF909F90CC
:100BC0008F900895E95CE1CFCF92DF92EF92FF9290
:100BD000CF93DF936B017C016DE281EF92E00E9485
:100BE000CA04EC0166277727CB016C197D098E09B1
:100BF0009F094AE00E94A0058C0F9D1FDF91CF91B5
:100C0000FF90EF90DF90CF9008951F920F920FB654
:100C10000F9211242F933F938F939F93AF93BF9382
:100C20008091E9029091EA02A091EB02B091EC026E
:100C30003091E80223E0230F2D3758F50196A11DCE
:100C4000B11D2093E8028093E9029093EA02A093F9
:100C5000EB02B093EC028091ED029091EE02A09134
:100C6000EF02B091F0020196A11DB11D8093ED023B
:100C70009093EE02A093EF02B093F002BF91AF9178
:100C80009F918F913F912F910F900FBE0F901F90CA
:100C9000189526E8230F0296A11DB11DD2CF1F92F1
:100CA0000F920FB60F9211240BB60F922F933F9312
:100CB0004F935F936F937F938F939F93AF93BF9364
:100CC000EF93FF938091A2039091A303A091A403BB
:100CD000B091A503892B8A2B8B2BE1F19091910385
:100CE000E0919203F0919303808189278083809122
:100CF000A2039091A303A091A403B091A503181699
:100D000019061A061B069CF48091A2039091A30376
:100D1000A091A403B091A5030197A109B109809303
:100D2000A2039093A303A093A403B093A503FF9100
:100D3000EF91BF91AF919F918F917F916F915F9153
:100D40004F913F912F910F900BBE0F900FBE0F90C0
:100D50001F90189580910202E8E6F2E0E4919FEF7F
:100D600090930202E230E9F040F4EE2389F0E130A2
:100D700091F060E00E946901DACFE43049F110F1AE
:100D8000E530B9F7909173009D7F90937300F1CF98
:100D900010926E00EECF90916F009D7F90936F0048
:100DA000E8CF909170009D7F9093700091E09093B8
:100DB000B0009091B100987F94609093B100109230
:100DC000B300D7CF909171009D7F90937100D1CFE8
:100DD000909172009D7F90937200CBCF1F920F92E3
:100DE0000FB60F9211240BB60F922F933F934F9390
:100DF0005F936F937F938F939F93AF93BF93EF9383
:100E0000FF9381EF92E00E94A804FF91EF91BF91C0
:100E1000AF919F918F917F916F915F914F913F9192
:100E20002F910F900BBE0F900FBE0F901F90189533
:100E30001F920F920FB60F9211240BB60F922F93A1
:100E40008F939F93EF93FF93E0910103F09102033F
:100E50008081E0910703F091080382FD1DC090811D
:100E600080910A038F5F8F7320910B03821741F0EB
:100E7000E0910A03F0E0EF50FD4F958F80930A0355
:100E8000FF91EF919F918F912F910F900BBE0F903B
:100E90000FBE0F901F9018958081F2CFCF92DF92F6
:100EA000EF92FF920F931F93E82FF92F05C0015087
:100EB00011092109310961F1908196239417B9F341
:100EC00005C0015011092109310911F190819623C2
:100ED0009413F7CFC12CD12CE12CF12C0AC08FEF49
:100EE000C81AD80AE80AF80A0C151D052E053F0590
:100EF00079F080818623841791F36C2D7D2D8E2DC2
:100F00009F2D1F910F91FF90EF90DF90CF9008954C
:100F100060E070E080E090E01F910F91FF90EF9013
:100F2000DF90CF900895789484B5826084BD84B5B5
:100F3000816084BD85B5826085BD85B5816085BDD4
:100F400080916E00816080936E001092810080918C
:100F50008100826080938100809181008160809314
:100F60008100809180008160809380008091B10039
:100F700084608093B1008091B00081608093B00064
:100F800080919100826080939100809191008160B6
:100F90008093910080919000816080939000809177
:100FA000A10082608093A1008091A1008160809364
:100FB000A1008091A00081608093A0008091210118
:100FC00082608093210180912101816080932101C1
:100FD0008091200181608093200180917A0084605B
:100FE00080937A0080917A00826080937A00809169
:100FF0007A00816080937A0080917A008068809383
:101000007A001092C10061E082E00E94F50161E087
:1010100088E20E94F50160E08AE20E94F501E09119
:101020000103F091020382E08083E091FD02F091E0
:10103000FE021082E091FF02F09100038FEC8083AA
:1010400010920903E0910503F091060386E0808386
:10105000E0910303F0910403808180618083E0913B
:101060000303F0910403808188608083E09103038F
:10107000F0910403808180688083E0910303F09104
:10108000040380818F7D808393E0E92EF12C23E29D
:10109000C22ED12C3CEEA32E31E0B32E4CE4842E94
:1010A00042E0942E80910002909101020C974CF442
:1010B0008091E6029091E702CDE5D2E0C2970CF074
:1010C0008EC060E088E20E946901C7010197F1F7D4
:1010D00061E088E20E946901C6010197F1F760E0D2
:1010E00088E20E946901F5016491F4018491E82F7E
:1010F000F0E0EE0FFF1FE85BFE4F8591949100E456
:1011000012E42FE030E0462F0E944E076115710572
:101110008105910529F06F5F7F4F8F4F9F4F9F7023
:101120000E94800926E933E44BE05DE30E94E40974
:1011300020E030E040E05FE30E94E4090E944809BB
:10114000709301026093000283E692E00E9493058F
:101150006091000270910102072E000C880B990B20
:1011600097FF30C00E94E4058EE692E00E9493054E
:1011700081E792E00E9493056091E6027091E70298
:10118000072E000C880B990B97FF20C00E94E405E6
:101190008EE692E00E94930560E082E00E94690181
:1011A00080910002909101020C97A4F48091E602D4
:1011B0009091E70201969093E7028093E6020E94E5
:1011C000370570CF4AE00E94A005CECF4AE00E94CA
:1011D000A005DECF1092E7021092E602F0CFE9916F
:1011E000EE2311F168E775E080E090E0E03281F0F5
:1011F0008FEB8E0F8A3178F4EE0FFF0BED56FE4F1A
:10120000808191810E94680568E572E080E090E04D
:101210000E940204E4CF80ED8E0F8A30A8F7EE0F13
:10122000FF0BE751FE4FECCF68E873E180E090E000
:101230000E940204C4CFE1EFF2E01382128288EE32
:1012400093E0A0E0B0E084839583A683B78387E032
:1012500092E09183808385EC90E09587848784EC8D
:1012600090E09787868780EC90E0918B808B81EC73
:1012700090E0938B828B82EC90E0958B848B86EC54
:1012800090E0978B868B118E128E138E148E08959C
:101290000E944F096894B1110C94DE0908950E94D0
:1012A000C30988F09F5798F0B92F9927B751B0F02C
:1012B000E1F0660F771F881F991F1AF0BA95C9F7DA
:1012C00014C0B13091F00E94DD09B1E008950C9492
:1012D000DD09672F782F8827B85F39F0B93FCCF345
:1012E000869577956795B395D9F73EF49095809557
:1012F000709561957F4F8F4F9F4F0895E89409C077
:1013000097FB3EF490958095709561957F4F8F4F38
:101310009F4F9923A9F0F92F96E9BB279395F6954E
:10132000879577956795B795F111F8CFFAF4BB0FCC
:1013300011F460FF1BC06F5F7F4F8F4F9F4F16C030
:10134000882311F096E911C0772321F09EE8872FBA
:10135000762F05C0662371F096E8862F70E060E076
:101360002AF09A95660F771F881FDAF7880F9695EF
:10137000879597F9089557FD9058440F551F59F0D8
:101380005F3F71F04795880F97FB991F61F09F3F72
:1013900079F087950895121613061406551FF2CF9B
:1013A0004695F1DF08C0161617061806991FF1CFEB
:1013B00086957105610508940895E894BB27662712
:1013C0007727CB0197F908950E94F7090C94680AD2
:1013D0000E945A0A38F00E94610A20F0952311F009
:1013E0000C94510A0C94570A11240C94DE090E94A3
:1013F000BB0970F3959FC1F3950F50E0551F629F95
:10140000F001729FBB27F00DB11D639FAA27F00D5D
:10141000B11DAA1F649F6627B00DA11D661F829F84
:101420002227B00DA11D621F739FB00DA11D621F69
:10143000839FA00D611D221F749F3327A00D611D86
:10144000231F849F600D211D822F762F6A2F112468
:101450009F5750409AF0F1F088234AF0EE0FFF1F9B
:10146000BB1F661F771F881F91505040A9F79E3FF2
:10147000510580F00C94510A0C94DE095F3FE4F3AF
:10148000983ED4F3869577956795B795F795E79548
:101490009F5FC1F7FE2B880F911D9695879597F951
:1014A000089597F99F6780E870E060E008959FEFE6
:1014B00080EC089500240A941616170618060906EB
:1014C000089500240A9412161306140605060895BA
:1014D000092E0394000C11F4882352F0BB0F40F442
:1014E000BF2B11F460FF04C06F5F7F4F8F4F9F4F82
:1014F0000895A1E21A2EAA1BBB1BFD010DC0AA1F55
:10150000BB1FEE1FFF1FA217B307E407F50720F06C
:10151000A21BB30BE40BF50B661F771F881F991FE7
:101520001A9469F760957095809590959B01AC0130
:10153000BD01CF010895EE0FFF1F881F8BBF0790DD
:10154000F691E02D19940E94AE0AA59F900DB49FCC
:10155000900DA49F800D911D11240895A29FB001AC
:10156000B39FC001A39F700D811D1124911DB29FD7
:0E157000700D811D1124911D0895F894FFCF78
:10157E000F27FF00000000CA04340461041705920F
:10158E0004700484049C02D4028602DB02E3028B04
:10159E0002E102CE02DC02B6029B029002AC02E233
:1015AE0002AB0295029A028702D502AD02A002C2D8
:1015BE0002A5029F02A402DA02A902AF02B502BB83
:1015CE0002C102C702CD02D302D902DF0246554F35
:1015DE00434F0044697374616E63653A20000D0ACF
:1015EE000046616C7365506F73697469766520632C
:1015FE006865636B3A002D2E2D2E002E2E2D2E009B
:10160E002E2D2E2E002E2D2D2E002D2D2E2D002D7D
:10161E002E2E2D002D2E2D2D002D2D2D2D2D002E6F
:10162E002D2D2D2D002E2E2D2D2D002E2E2E2D2D31
:10163E00002E2E2E2E2D002E2E2E2E2E002D2E2E48
:10164E002E2E002D2D2E2E2E002D2D2D2E2E002D3C
:06165E002D2D2D2E0000D1
:00000001FF
